S00E0000656E726F6C6C2E737265638A
S22400000000F0FF1FAD010000F5000000D5000000D14A0000D14A0000D14A0000D14A0000E9
S224000020D14A0000D14A0000D14A0000F9000000D14A0000D14A0000FD000000F53D00000C
S22400004005010000090100000D01000011010000D14A000015010000190100001D01000002
S2240000602101000025010000290100002D010000ADA0000095460000390100003D0100003B
S2240000804101000045010000490100004D0100005101000055010000E13D00005D01000017
S2240000A0B94C000065010000690100006D01000071010000D14A0000ED47000001480000EE
S2240000C0641A010080F0FF1F0000000080F0FF1F5C09000039498D4509D306990A88384B37
S2240000E09A4204D10231069120210091704704F0EFFC704704F0ECFC04F0EAFC04F0E8FCD3
S22400010004F0E6FC04F0E4FC04F0E2FC04F0E0FC04F0DEFC04F0DCFC04F0DAFC04F0D8FC62
S22400012004F0D6FC04F0D4FC04F0D2FC04F0D0FC04F0CEFC04F0CCFC04F0CAFC04F0C8FCC2
S22400014004F0C6FC04F0C4FC04F0C2FC04F0C0FC04F0BEFC04F0BCFC04F0BAFC04F0B8FC22
S22400016004F0B6FC04F0B4FC04F0B2FC04F0B0FC04F0AEFC04F0ACFC04F0AAFC0648074A7B
S22400018010B5121A06490DF094FD0648064A0021121A0DF096FD10BD80F0FF1F80F0FF1F28
S2240001A0641A010080F0FF1FDCF9FF1F00E000BFFFF7E4FF0DF077FD00BE000000E0FF1F95
S2240001C0ABBE0000FFFFFFFFFFFFFFFFFFFFFFFFFFFFFFFFFFFFFFFFFFFFFFFFFFFFFFFFCD
S2240001E0FFFFFFFFFFFFFFFFFFFFFFFFFFFFFFFFFFFFFFFFFFFFFFFFFFFFFFFFFFFFFFFF1A
S224000200FFFFFFFFFFFFFFFFFFFFFFFFFFFFFFFFFFFFFFFFFFFFFFFFFFFFFFFFFFFFFFFFF9
S224000220FFFFFFFFFFFFFFFFFFFFFFFFFFFFFFFFFFFFFFFFFFFFFFFFFFFFFFFFFFFFFFFFD9
S224000240FFFFFFFFFFFFFFFFFFFFFFFFFFFFFFFFFFFFFFFFFFFFFFFFFFFFFFFFFFFFFFFFB9
S224000260FFFFFFFFFFFFFFFFFFFFFFFFFFFFFFFFFFFFFFFFFFFFFFFFFFFFFFFFFFFFFFFF99
S224000280FFFFFFFFFFFFFFFFFFFFFFFFFFFFFFFFFFFFFFFFFFFFFFFFFFFFFFFFFFFFFFFF79
S2240002A0FFFFFFFFFFFFFFFFFFFFFFFFFFFFFFFFFFFFFFFFFFFFFFFFFFFFFFFFFFFFFFFF59
S2240002C0FFFFFFFFFFFFFFFFFFFFFFFFFFFFFFFFFFFFFFFFFFFFFFFFFFFFFFFFFFFFFFFF39
S2240002E0FFFFFFFFFFFFFFFFFFFFFFFFFFFFFFFFFFFFFFFFFFFFFFFFFFFFFFFFFFFFFFFF19
S224000300FFFFFFFFFFFFFFFFFFFFFFFFFFFFFFFFFFFFFFFFFFFFFFFFFFFFFFFFFFFFFFFFF8
S224000320FFFFFFFFFFFFFFFFFFFFFFFFFFFFFFFFFFFFFFFFFFFFFFFFFFFFFFFFFFFFFFFFD8
S224000340FFFFFFFFFFFFFFFFFFFFFFFFFFFFFFFFFFFFFFFFFFFFFFFFFFFFFFFFFFFFFFFFB8
S224000360FFFFFFFFFFFFFFFFFFFFFFFFFFFFFFFFFFFFFFFFFFFFFFFFFFFFFFFFFFFFFFFF98
S224000380FFFFFFFFFFFFFFFFFFFFFFFFFFFFFFFFFFFFFFFFFFFFFFFFFFFFFFFFFFFFFFFF78
S2240003A0FFFFFFFFFFFFFFFFFFFFFFFFFFFFFFFFFFFFFFFFFFFFFFFFFFFFFFFFFFFFFFFF58
S2240003C0FFFFFFFFFFFFFFFFFFFFFFFFFFFFFFFFFFFFFFFFFFFFFFFFFFFFFFFFFFFFFFFF38
S2240003E0FFFFFFFFFFFFFFFFFFFFFFFFFFFFFFFFFFFFFFFFFFFFFFFFFFFFFFFFFFFFFFFF18
S224000400FFFFFFFFFFFFFFFFFFFFFFFFFEFFFFFF4B4C32360000C046FFFFFFFFFFFFFFFFEB
S224000420436A9E46036A9D46C3699B4683699A464369994603699846C768866845680468F2
S224000440080000D101207047C046C04610B506480CF0CEF805480CF0CBF805480CF0C8F8F0
S22400046004480CF0C5F810BDCA020100E7020100110301003A03010010B503480CF0B8F8DF
S2240004800022024B1A7010BDB403010045F6FF1F70B50A4C060023780D00002B02D008480A
S2240004A00CF0A6F801233100064823700CF0A0F8290005480CF09CF870BDC04645F6FF1F41
S2240004C074030100760301008003010010B504000100044803F014F9210003480CF088F8A3
S2240004E010BDC046650301006403010010B50CF02CF80F4B041E05DA002201241A606442AC
S224000500200010BD022801D11860F9E7032802D101221A60F4E71A68012A01D100221A6004
S2240005201B68002BECD120000CF029F8E8E7C04680F0FF1F1FB504000B1E00D1064B074A37
S224000540102168460CF046F96B460200182120000CF0B5FA04B010BD05B43201A30E0100A6
S22400056030B587B06C462300050005C905C30022124920000CF0D9F904AB616881220098CC
S2240005800CF002FA02AB6168822200980CF0FCF9029A039928000AF0F2FA049A0599040035
S2240005A028000AF0ECFA241800232200302128000CF085FA201807B030BDC046497F00000F
S2240005C00FB4074B07B51B68002B04D105A9054801910CF019F803B008BC04B01847C04698
S2240005E080F0FF1F9C0E0100F820142210B50449044B80020B604A600CF0FBFA10BDC046B3
S22400060084F0FF1F89723E9D094B10B59B680400012B02D1FFF75AFF10BDFFF72DFF2100EF
S2240006200448FFF735FF04480BF0E2FFF4E7C04684F0FF1F8D0C0100D80E010070B50500F9
S224000640FFF71AFF074C08482100FFF721FF29002000FFF71DFF05480BF0CAFF012040429D
S22400066070BDC046680301008D0C0100D80E0100064B10B59B68012B04D1FFF727FF0120FE
S224000680404210BDFFF7DAFFF9E7C04684F0FF1F144B10B51B68002B0DDAFFF7EDFE1249CA
S2240006A01248FFF7F5FE12491248FFF7F1FE12480BF09EFF10BD114B1B785BB2012B0CD194
S2240006C0FFF7DAFE08490948FFF7E2FE0C490948FFF7DEFE0B490C48E7E70C48FFF7AEFFEA
S2240006E0E8E7C04698F0FF1F850301008D0C01008803010090030100D80E010044F6FF1FF8
S224000700E40D0100960301009A030100A403010000B58BB001A903F0F9F8002809DB00F088
S22400072093FE054B0122002800D000221A70FFF7AFFF0BB000BDC04644F6FF1F00B58BB0A2
S22400074001A9002003F0E2F8002812DA002002F0D7FF0C48FFF7BAFEFA20800002F090FAE9
S224000760FA20642140000AF0A0FA012040420BB000BD00F069FE0028F9D0002002F0C0FFCD
S2240007800148E7E7AF0E0100C60E0100F0B5F3B003920500EF4A0F004DA8EF49049300F0CC
S2240007A0DBFFEE4BEE480C939523DB000D93FFF72BFF0AA9039800F095FE0B9A0A9928A810
S2240007C000F0CAFF8023419A5B0005929A4200D0F0E1789BE34C00930A9A142340A9019440
S2240007E0039800F0A3FE789B00900A99142240A80AF057FE2200789906001BA800F010FE1B
S22400080014AAD9491BA803F009FB409B0593102B00D0CBE1429B439A81211BA80CF004F9F7
S2240008208221449B459A1BA80CF0FEF814991BA80CF031F91BA80AF09FFA04000AA80AF001
S22400084064FA002E09D0C74B789A0721380000F091FE041EC54800DC79E1C54A802194463C
S224000860789B49000E9363440793789B0AA80F940A930B920AF072F9BE4906000AA80AF075
S224000880A3F90A9A36189446731CFF3308930B9B1BAC0593210063444DA8099301F00EF83A
S2240008A01B9B626880210AA80CF009F900230600020030210AA80CF002F9AF4932180AA849
S2240008C00AF09AF9082207000AA914A80DF0F1F90EA914A8FFF744FE149B15990200591884
S2240008E0202301200093230001F05AFB2300020004210AA80CF0E3F8A04902000AA80AF029
S2240009007BF9C3190293002304211A000AA80CF0D6F89B4902000AA80AF06EF92B6C060079
S224000920002B16D02A004D20237008AF0733DB1020321F21C0190BF0A2FE2300421C0421EF
S2240009400AA80CF0BCF88F4902000AA80AF054F93618029B1BAC9B198B4A32212000059317
S2240009600BF0F6FE32220600121A211828006C300BF0BAF82300321886210AA80CF09FF8FA
S2240009800600280014A9443002F016F814AB192204210AA80CF093F8002302000700A021AE
S2240009A00AA80CF08CF8794A3F181368062152680AA80CF084F83F183A00002330210AA8A9
S2240009C00CF07DF83618F71900233A0030210AA80CF075F86E493A180AA80AF00DF9059B1F
S2240009E030211E18320000230AA80CF068F833180693069A0023A3210AA80CF060F80EA9E0
S224000A0007000AA8FFF7ACFD010006000AA80AF0A5F8604936180AA80AF0D6F833180593D5
S224000A20059A002330210AA80CF049F8C71904980BF079FE049B020013210AA80CF03FF807
S224000A40554B0600032206210AA80CF038F836183200002330210AA80CF031F83618320076
S224000A60002331210AA80CF02AF833180493049A002330210AA80CF022F86969C7190AA80C
S224000A80FFF758FD296906000AA8FFF753FD36183200002330210AA80CF011F8619B629AD3
S224000AA0C71930210AA80CF00AF83249C7190AA80AF08AF8C51920000BF003F82200102180
S224000AC00AA80AF05CF8022745192300012239000AA827700BF0F3FF002302004519A02191
S224000AE00AA80BF0ECFF059B4519AE19F618069B3021F618049B0AA8F618320000230BF0D7
S224000B00DEFF0A9A089B944618180B9B8619049363441900099B21485A1A1491159201F048
S224000B2045FE0023320030210AA80BF0C8FF05001B48FFF769FD80235B00009314AA079B9E
S224000B400CA9380001F014FC002836D01548FFF78FFD29E08303000069080100C1030100CF
S224000B600B0E0100B80B0000497F0000220E0100B80A0000F0E00000E0E0000000E1000067
S224000B8008E1000010E10000360E010060E10000F8E00000E8E00000F20B0100400E010003
S224000BA0470E01005E0E010073B0F0BD439B449A862138E60126764240E60F4A789920008D
S224000BC000F02EFC0A9A0B9B7021D318200072190BF02AFF01227121084B20000BF024FF1B
S224000BE020000AF0C9F87899020003980AF085FA0028D9D00248AAE7B80B0000DC0E010094
S224000C006F0E010030B5050087B00B00244A142101A80BF0DFFDA968C343CA43DB17D21703
S224000C20040003401140286801AA0BF014FD002803D10024200007B030BD041901202B681B
S224000C40AA68184D9A182378944210D32000222B08D10134121BD343DB171A4022212000A5
S224000C600DF033F8002815D1E3E70134EBE7E918803109780142F8D120000121222BE8D0E2
S224000C809042EFD203782C2B04D0EB1880331B780B4202D000230370CCE70130F0E7C04657
S224000CA06E030100E3180100F0B5B5B00BF044FFCD4D142128000BF01CFDF8229202CB4B2A
S224000CC01168994204D15368142128000BF0D7FCFFF78AFCFA20800003F038F803F08CFB4D
S224000CE003F092FBFFF7B2FB0AF030FF00F050FB434258412B690230002B02D12861FFF707
S224000D0073FC052002F0B0FCB94801F039F90BF0D1FA012000F09CFF15A90DA80AF0A8FBF6
S224000D200D9800F0BDFF159800F0CAFF0AF00EFFB04802F0E5FCB048FFF742FC0122AF4BDC
S224000D4052421A600BF0FAFB002800D1ABE0AC48FFF7CCFB831E0600012B00D8A0E01F3BD6
S224000D605D2B00D99CE07B285CD0A548FFF7BEFB09F0CCFD0400300009F0C8FD0302E0B2DB
S224000D801843A04B00B2984200D1B9E027DC9E4B984200D1D4E005DC7B2843D09B480BF052
S224000DA027FC7DE09A4B984200D1AFE0994B9842F4D12D200BF008FC0120404202F0FCFE31
S224000DC015AB18701022012118000BF078F8002802DBE860FFF708FCE9688F48AAE08F4B1C
S224000DE0984200D1C7E009DC8D4B9842D6D1F82252021100002002F043FA51E0894B9842B1
S224000E007BD0894B9842C9D12D200BF0DDFB0120404202F0D1FE6D2842D103F0AFFA01F081
S224000E20F7FF3DE0642115A8FA2409F0FEFE7B20E4000DA90870012215A809F006FF002892
S224000E4003D07A48FFF7FAFB27E015A809F017FF00280AD12000FFF749FB032805D00028B5
S224000E6001DB1B28E5D17248ECE7724915A8FFF7C9FE7149040002F005FF00280DD06F4965
S224000E80200002F0FFFE002807D06D49200002F0F9FE00282FD1FFF7FBFB15A809F0CEFEEA
S224000EA05548FFF78DFB554CAA682368012A00D0B7E1002B00DBA6E100200BF00BFA00286C
S224000EC000D1A0E100232360FFF738FC002800D093E15C4802F014FC01200BF0FBF90028A1
S224000EE05BD015A9012002F011FD002862DC5648FFF7ECFA81E15548A4E7FFF7A7FACFE72C
S224000F00642002F023FF03F069FAC9E72D200BF05BFB0120404202F04FFE30280DD1002058
S224000F2001F0AEFC002001F0ABFC040001F0A8FC210047480BF05CFBB2E701204042EFE7AC
S224000F402D200BF041FB0120404202F035FE00230400AB600AF0FAFD264802F0D1FB312C94
S224000F6006D10123AB600AF0F1FD3A48FFF7AEFAA9683948DEE72D200BF026FB01204042FB
S224000F8002F01AFE0300313B022B03D830382861FFF72AFB29693148CCE70BF09BF900284A
S224000FA000D12AE101F0DAFD002800DB25E103F033F891E72A4A0421602000F0C5FF0028F4
S224000FC008D0284A0421602000F0BEFF002801D025488DE7102205A906200AF05EFA002816
S224000FE046DC224884E7C04684F0FF1F89723E9D1CE200002D0C01009C0E010098F0FF1FFE
S22400100088130000425200004D430000D50C0100424400004D460000D10C01004D53000093
S224001020465200005656000058580000670C01006E0C0100760C01007D0C0100840C01002A
S224001040890C0100E60C0100F60C0100940C0100A40C0100AA0C0100C80C0100CC0C010048
S224001060EC0B0100BB030100090D01001F0D01007C2115A80BF03DFB132202A9521809236D
S22400108020211DA80BF0FBFAC100824825910BF0AFFA259B1DA9DA1DD2100020039301F06A
S2240010A085FB012315937C4B30A81A930AF009FDFA22FA215200794801F0F2FD7848FFF7B3
S2240010C005FAFFF73BFB774801F0FEFE061E00D196E000F0B9F90024A04204D07248FFF79D
S2240010E0C7FA040078E0714A002113195B68A2589B2009F04BFF0312DBB20700692B00D0FE
S224001100C3E00834182CEED16948E8E70DAC654A310009A800F084F9210026A801F04CFC89
S22400112023001922302109A80BF07EFC30AB1022342109A80BF078FC1A9A5E4920000BF0DD
S2240011407FFA23000822352109A80BF06DFC3B003A00402109A80BF067FC259B002B0FD0AA
S2240011602D20237002AF0733DB101DAA1F21C0190BF085FA2300421C412109A80BF054FC7B
S22400118009A809F0F9FD310002004B4809F0B5FF041E4A48A3D11B9B0393002B02D1159B15
S2240011A0012B0AD14648FFF72FFA0096454B464A9E2115A8FFF7EAFA04001B9B0393002BEF
S2240011C00AD04248FFF720FA0096414B414A9A2115A8FFF7DBFA0443300001F0D1FD0AF076
S2240011E0B5FC002C09D13C48FFF770F901F034FDC8209621800009F058FD02F00DFFA1E53D
S22400120001246442E8E720680028F6DB0BF062F80028F2D101235B4223600AF097FC2F4826
S22400122066E6002B0DDA00200BF054F8002808D000263000266001F0F7FB3000FFF768FA9D
S224001240DBE72368002B0BDA01200BF043F8002806D000230120236001F0E6FB0120EDE749
S22400126020680028C9DB0BF035F80028C5D1206802F088FB01235B422360FFF709FA0AF0FB
S22400128065FC174802F03CFAB7E7002800D13DE7144824E7310D0100FF4C4001A08601004D
S2240012A03B0D0100B80B0000520D0100C8E00000EA0D0100740D010002C15F00790D0100F2
S2240012C08C0D0100A40D010001C15F00AE0D0100C60D010005C15F00CF0D0100AA0C010053
S2240012E02D0C0100610D010010B5064802F0D6FC012105480BF0C5FE00210D200BF068FD8E
S22400130010BDC046E91200000090034070B505000C00002801DD002902DCFFF7E5FF70BDDD
S22400132003210D2003F038FA32232A000121064803F0F2FA012104480BF09CFE21000348F5
S22400134002F0C0FCEBE7C04600900340E912000010B54A200BF01DFD0A2002F0F7FC4A2077
S2240013600BF022FD0A2002F0F1FC60200BF01CFD0A2002F0EBFC60200BF00BFD9622034B25
S22400138092011A6000225A7110BDC0469CF0FF1F70B50025144C257102F04EFD052816D140
S2240013A05B3029000BF0DCFC60200BF01DFDA84216D0012500214A2025710BF009FD602074
S2240013C029000BF005FDFFF7C3FF002070BD4A2003210BF0C5FC4A200BF006FD0028E8D04B
S2240013E001204042F2E7C0469CF0FF1F0300002299684068914200DC100003495A601960B0
S2240014009A60DA607047C046BBAC0000034A03000260416000209860D8607047CDAC00009C
S224001420030003485960186000209A60D8607047BBAC0000034B4160036000238260C3603E
S2240014407047C046BBAC000010B5042001F002FB092102480AF0DCFF10BDC046D80F010088
S22400146070B50C00802186B005004900200009F03CFC00282CD1280001AB6268216809F07B
S224001480C0FC051E03D00312DBB2612B15D1114902AA20680BF040FA0399002914D02000F5
S2240014A009F03CFC061E11D163682268019928000AF0DCFF002804DC074D200009F025FC6E
S2240014C02E00300006B070BD044DF6E7044DF4E7034EF6E7FF7F0000A2650000826A0000CD
S2240014E0A365000030B50C00050085B00E49200009F0FBFB69462800FFF7B2FF02AB019989
S2240015007022009809F0ABFC636822680399029800F0E4F90500684609F0F7FB29002000BD
S22400152009F0FCFB05B030BDAA0F0000F7B51E0001230F0015005B42020004210B4809F039
S22400154031FF7A68040000230521094809F02AFFFF230100200019401840099B2A0001935E
S224001560089B0093330009F086FCFEBD18E1000038E10000F0B50E268DB0029302ABF6184F
S22400158005000391170034490A2230000CF091FB6B461B7BEDB2737204ABF5703A00009389
S2240015A00A21029B300002F003FA00284DD00312DBB2612B49D008AC28490D2220000CF043
S2240015C078FB0F232A0020009A431D40227265720AF016FF49232000E3720AF011FF039BDA
S2240015E0112B2AD100250A3B237126222B001C490195009520000AF056FF2B00262219496A
S2240016000195009520000AF04EFF2B00262216490195009520000AF046FF2B002622134908
S2240016200195009520000AF03EFF019500952B0047220F4920000AF036FF04AB00933A0041
S224001640029B0A21300002F0B3F9029B3A0004990AF00CFF0DB0F0BDCE0F0100C10F01005D
S2240016609A0F0100040F0100730F0100DD0E01002B0F010073B50D006A46002106000BF0F6
S2240016801DF9009C182824D1019B0F2B37D1200004210AF02CFC04342860022120000AF01C
S2240016A026FC02216860A01C0AF021FC0221A860201D0AF01CFC0221E860A01D0AF017FC96
S2240016C028612000022108300AF011FC6861002019E0172813D1019B0D2B10D102212000FD
S2240016E00AF005FC084B094AC318934202DD2B600234D2E7FA23DB00C0182860F8E70021E3
S22400170030000BF024F976BD6C0700009D07000010B5020000230C21014809F031FD10BDDE
S22400172068E1000070B500220C240A4D230053435B199E68864203D105CB05C1002070BDDB
S22400174001320C2AF2D1002301200B604B604042F5E7C04668E10000F0B587B004AC0600BF
S224001760230005000491059206CB06C6200001AA30210BF0DAF83200616804980BF0CCF834
S22400178002AA302120000BF0D0F80022364920000BF094F82A0078361032022120000BF0C4
S2240017A08DF82100300009F001FD2A003021183220000BF083F803AA302120000BF0B5F836
S2240017C0290020002031FFF755FF290020003831FFF750FF039920000BF0B9F82F002A0068
S2240017E058375032302120000BF068F83A001F4920000BF063F828007A68A96D603000F04F
S224001800E1FB00221A4920000BF058F820370022184920000BF052F83A00174920000BF003
S2240018204DF80022302138000BF07FF8029920000BF08DF8210030000C3609F0B7FC320095
S224001840032120000BF03AF830000BF0E9F8200001990BF07CF8041E03D0942128000AF011
S22400186048FF200007B0F0BDA0000040300000208100004082000040A300004073B50600D4
S2240018801C0015006B460A00806FF16F0BF08EF82200094968460BF011F8002D04D02068D8
S2240018A061680BF09CF828602200042168460BF005F8043876BDC0460100004010B50C00CF
S2240018C00B0000220449FFF7D9FF0022042120000BF02BF8043810BDF8E10000F7B50400A4
S2240018E00D0017001E00092901DC0020FEBD09F0DFFC134B98420FD1A21C023DF343DB17A6
S2240019001E4001A96B4638000095019603F0A8FB0028EAD10198E9E7200009F0C9FC094B91
S224001920984203D122000A3D0A32E7E7B542DCDC2B002200310038000AF0A1FED6E7C046C0
S2240019409C7800008B1F00004342034002485843024BC00E1856704731B57C074E1001000F
S224001960F0B5C9B00793002302270590039106920293404C092023003733197806AD039BE4
S224001980059A013940190AF07AFE039B04901B1A039336342278002B23DC3A43049B5E1CDD
S2240019A008AC35493800227009F0F4FF092206A95218731E002138000AF00FF88023220046
S2240019C05B00310020000AF091F9051E0CDC02002A49380009F0DEFF002D12D0280049B014
S2240019E0F0BD12242243D9E722782549380009F0D1FF092206A952186B1E0021380009F0B2
S224001A00DCFF08AB1C7862B2002A17DB0126194B013D36331A78079972401A70092306AAF3
S224001A209B180095029A06980AF048FE029B1D18E306D3D5B12262400295B1E762060BD491
S224001A40049A059B9446012263440593094B363319784A401A708CE7F22C07D13F215A780A
S224001A60029D0A405A703E002200E5E701256D42B4E7C046A4F0FF1FE1100100EC1001006B
S224001A80FA1001000E20F0B58BB002ABC0180AF039F90290002803D001235B420293BBE0F9
S224001AA0614C0126250027001435093729003800A6710AF047F9031EEEDBE0743A005B49AA
S224001AC0022009F07AFF33002A005949022009F074FF237D9B0600D49EE00AF004F98023B3
S224001AE007005B00984200DD1F000023514A99568F4202DD0133082BF9D12600E0221B01D7
S224001B0015366275A37532002023022130000AF0EDF8051EC0DB030032004749022009F041
S224001B204CFF230035331D701025A27D154000D175E0E57D18344023910600D523780F2126
S224001B400A40072A00D96CE03A498E561A090F2A00D10B3A202191400F2203911340934208
S224001B6000D10023972464009C403200039B33490220009409F00EFF200002F0F5F8072241
S224001B802B0915401D4002231D4201D1013B2B400422154200D00323234AD5799D4200DD73
S224001BA01D006A222649AA40022009F0F3FED02306AC2370BF3B6370AB002B43A3702200BF
S224001BC003232049022009F0F8FE10232200032120000AF08BF8031E00DA5DE722001A4986
S224001BE0022009F0EAFE2900002001F09DFA174802F0BAF803980AF068F802220A4B00217A
S224001C009A711A0036321170B21ED2B2B74201DC023FFAB237331A7002980BB0F0BD173459
S224001C2089E78026760091E7A4F0FF1F7E10010084100100CA1001008A10010090100100AE
S224001C40B3100100BE100100C410010088130000002310B5094C2371984206D009F0D5FF2E
S224001C60002802D10223637110BD00200AF00CF80120002360712371F6E7C046A4F0FF1F42
S224001C8010B5064C6379012B06D0002009F0FCFF022363710023237110BDC046A4F0FF1F01
S224001CA00023012806DD0133032803DD0133072800DD0133014AD3717047C046A4F0FF1F3F
S224001CC0014B18727047C046A4F0FF1FF0B53D4C87B06079042806D80CF0ACF80308430B79
S224001CE01B0009F0C0FB207907B0F0BD00232371F9E702F087F82368C01A0028F3DD01208D
S224001D0009F0C2FF02F07EF80423063020606371E9E702F077F82368C01A0028E3DD2379D1
S224001D20002B0CD1207A09F0BFFFFFF7ABFE002845D1033009F0B8FF012323711CE0A379B5
S224001D40022B20D1230036331A784E235B42134302A8037002000823012109F0C7FF00288B
S224001D600ADA0021080001F0DFF90A2009F0ADFF0020A07109F088FF0323637102F042F8E2
S224001D8064302060AFE7012BEBD0032550276B46981D09F0C7FF002811D0002302AE6A2083
S224001DA073703770013D09F090FF102332000221300009F09BFF002DE9D12571D1E700202E
S224001DC0D8E7C046A4F0FF1F70B5274C88B023790500002B44D00F22244968460BF069FF28
S224001DE01323E356042B02D0637A042B05D1237D082B2AD1073B6A469372237D9B062CD585
S224001E002300220035331B7815325BB20F21281D0AF035FC3B232B70BB3B1A00AB70024320
S224001E208133C11C04006A70EB70061DE81809F0E4F9AE190534307023002A000C49022076
S224001E4009F0BBFD200008B070BD182B01D1163BD1E7FF2269464A72CDE76A460F23D5E7CB
S224001E6002246442EEE7C046A4F0FF1FD21001007810010010B5002009F006FF0222024B44
S224001E8000205A7110BDC046A4F0FF1FF0B51F00037887B004001500FF2B42D1264E037911
S224001EA00422310001930BF01BFF00280BD11323224A3900D356280009320AF0E0FB0600D7
S224001EC09021090208E0711D042220000BF008FF061E08D000261A49A81989B209F01DFAF2
S224001EE0B01C07B0F0BD019B601D0593154A02AB019904900AF048FD02AB0422029803997A
S224001F000AF042FD039B012BE4D10321029B1B78DA080A400B40934200DD1300074AD371DF
S224001F20CEE7064B00209B79022BDAD13B002000FFF716FDD5E7C0466E100100A4F0FF1F33
S224001F40816A00006EFF000070B50D0016000400002009F099FE062001F0F8FE012009F001
S224001F6093FE062001F0F2FEFFF78CFD034B320029000933200009F05FFF70BDA4F0FF1F0A
S224001F8010B5024B18600368984710BDDCF0FF1F10B5024B1B689B68984710BDDCF0FF1F83
S224001FA037B5034C069D24680095E468A0473EBDDCF0FF1F10B5024C24682469A04710BD25
S224001FC0DCF0FF1FF0B593B007AF04003B00080011000FAA09F079FA0F9E102E06D0302ED8
S224001FE021D000230120236040421AE009AD2B00280006CF06C3002230210AF096FC0BAA4D
S224002000022128000AF05AFC0DAA022128000AF055FC0E9B0B9900930C9A0D9B200009F08C
S22400202071FA13B0F0BD0DAD2A00089B079F039310AB03CB03C20022062128000AF075FCD3
S22400204000232A000221064809F09AF8C31DDB106360039BA0602660E76023610020E0E7CE
S22400206004E20000FF2337B5074C084D23702B6801939847002804D16B68010001939847E2
S224002080207000203EBDC04646F6FF1F34FE00000300006810B5013803280AD80E4C2456B4
S2240020A0A24216DB03280AD808330BF0C3FE050A0E0E01246442F3E718000BF03DFA200008
S2240020C010BD18000BF0C8FAF9E718000BF000FCF5E71C246442F2E71B11010007B5064B95
S2240020E01B787F2B04D8054B9B68019398470EBD00F0E2F9FBE7C04646F6FF1F34FE0000F2
S22400210073B50C4A06000C000AF022FB0A4D2B787F2B08D8094B211A5B6830180193984782
S2240021200020285676BD064A210030000AF028FBF6E7C0461F11010046F6FF1F34FE00006B
S2240021402E110100020000200A4B1B785BB2834207DB052B06DCC021D30F490091425841F2
S224002160C0B270470120062BFBD1803A1000421E9041F5E746F6FF1FF0B50D001E000023EF
S224002180E9B0140001000DAA280009930A930B930C9309F09DFA00280AD00124644209A829
S2240021A008F0B3FD0BA808F0B0FD200069B0F0BD09AA3100280009F0CCFA0028EDD12568F6
S2240021C064680D9930A809F049FB2900220030A809F027FB402210A930A8FFF759FF0F9B4A
S2240021E00A9D0393C31801330700AB42D5DA099C6319013B1B78BC2BCFD12D1A013D631973
S22400220005937F2326789E43C7D129000BA808F06CFD0E9B039606930B9B07930C9B0493D2
S224002220049BB34236DC2A000B9920000AF0EAFA7F2223780021134023700F9B2000ED1A13
S2240022406E1E320003930AF0D0FA0028A5D1A35D012BA2D10D9930A809F000FB08221F4920
S22400226030A809F0DEFA65193A0010A930A809F0D8FA0F9A290030A809F0D3FA402210A911
S22400228030A8FFF705FF3A00059910A80BF028FD040084E7039920A809F045F8069930A837
S2240022A009F0DCFA3A00059930A809F0BAFA042220A930A809F0B5FA402220A930A8FFF785
S2240022C0E7FE20AB00903200049907980AF0F6F9039B361801330393A2E7C04612110100F9
S2240022E0F7B5040048680D0016001F00FFF72AFF00280AD0114B20009C46644624693B0046
S224002300320029000194A047FEBD200008F06DFF102804D0202809D03C204042F4E73B0081
S22400232032002900200009F04CFAEDE73B00320029002000FFF720FFE6E7C04634FE00003A
S22400234030B5094D85B0089C2D7800947F2D07D8002A05DD054CE4680394A04705B030BDD7
S22400236009F09AFAFAE7C04646F6FF1F34FE0000F0B517000022C5B00BAC09900D0019A8E7
S22400238011001E000AF0BDFF2300200006CD06C3002230210AF0C9FA0DAA022120000AF050
S2240023A08DFA0FAA022120000AF088FA11AA022120000AF083FA13AA022120000AF07EFA32
S2240023C015AA022120000AF079FA17AA022120000AF074FA129B109A0693119B0F99059341
S2240023E0149B19A80493139B0393189B0293179B0193169B0093159B06F0E6FA19A806F07E
S22400240029FB4A9B009601930CCF09991A9809F000F9330000220649009619A806F01EFC58
S224002420040019A80AF07BFF200045B0F0BDC04647B70000F0B5102185B01B4809F0DCFB5A
S2240024408023802219481A491B05465833434350184B5A620090019119681142FCD00022A4
S22400246011009C209860002018621960802518682842FBD01869039000200B4CA71803AC2C
S2240024803D78245C013265403D700F2A00DD002201300428F1D101311F29E2D1009B019AC3
S2240024A09E5005B0F0BDC046E0F0FF1F007004403C10000000B0034070B504000D0001F0B9
S2240024C0A7FC21000D4B1A68504018600A1B954201DC002070BD5A6818681A609A68DE6827
S2240024E05A60C2025040F20C72404240000A4240DA60120C9E600A700131E7E7E0F0FF1F4D
S224002500F0B505000024836899B00593C368079101930369039343690693836904930F27C5
S224002520A60027400F2C00DDEBE0079B981908F0C6FE08AB98511B20059A854BC241BF008F
S224002540D21808ABFB580699D218039B01344B4001990B4006994B40D218049B0199D21883
S2240025600223D94102910599019106990491142C00D0C0E00F219C46079027002600E31E79
S224002580083F0B400F40BF0008A89B001B5838580E40B600584008ABF35808AF584023003C
S2240025A00E3B0B409B00DB59013458401F23D8411300F051079E029FF341664E9B19059EB2
S2240025C07E40039F7E409B191B18069806971B180493634605980592D8410190282C00D041
S2240025E0A7E002230F279C4623002100E61E083B3E403B4008A8B6009B001B583658394013
S22400260089005E400B585E40059323000E3B3B409B001B5801345E401F23DE410E5011005D
S2240026201B20019B1943029B1940019B13401943049BC34148481B18CB1803999B195B1815
S2240026406146CA41029916000391049A3C2C00D075E00F27220021003A4094460839E21E45
S2240026603A40394008A89200890012580958514062469200105841400E2040428446A444B6
S22400268060463840800084460391614608A8095803980134484001001F20C14108A81150D6
S2240026A01B201A00C2412D48121804980392019A7040504084460220039A62445118029ADE
S2240026C08918049A0493C24101980290502C3BD1A8684118A960E968CB18EB602B699A1832
S2240026E06B692A619E19019AAB696E619818A861002019B0F0BD039B05920693029B0393F1
S2240027000DE708ABF61833000F20203B383E31681B68BA004B4008A951584B400291E11EF4
S2240027200140890008A809584B401F21CB41135001E7029B049A0393019B02931DE70199F7
S2240027400493029101964FE701960B00160081E79979825AA1EBD96EDCBC1B8FD6C162CA97
S2240027600123002805D0044B1B680340581E8341DBB218007047C046F0F0FF1F094B10B56B
S2240027801B6804001B060BD5002809D003780A2B06D101F037FB0100034809F029FF01345F
S2240027A0200010BDF0F0FF1F4B110100F8B516000F0009F0EEFE842335005B009E4200DD21
S2240027C01D003C00E31B9D4205DCAE4202DD054809F00EFFF8BD2178034809F009FF0134EC
S2240027E0F0E7C0463F110100DD180100F0B5002485B003910192029309F0CBFE019F029BF7
S2240028009C4201DB05B0F0BD039B019A1948991AC91909F0EDFE002603231E4202D12020C5
S22400282009F0D2FE029A331925009A421BDDB95D114809F0DDFE0136102EEDD10F4809F023
S224002840D7FE1034029B9D4207DA019B585D0300203B5E2B0BD809F092FE0135A542F1D17A
S2240028602C001037CBE7054809F0C2FEE3E72E20F1E7C04644110100DE1801005B0E01007B
S224002880024B1A68186010007047C046F0F0FF1F70B51D00049B040009F08FF8049BAB4230
S2240028A003DA0249200009F075F870BD3F110100F7B5060017000024052500910193290082
S2240028C06143009B8B4201DC2000FEBD2A00300008F09FFC044B019A40081B5C9442F3DAF6
S2240028E03B550134EBE7C04663110100F0B505008DB014001F00002904DA011E02D009F0B6
S2240029007FF8010002AE2800320009F08EF8051E48D1192F19D13900200009F0EAFE2F00DA
S2240029200F22F35D19211340224A2000D35C052200927A4308F08DFC002803D10137282F47
S224002940EED1050028000DB0F0BD282F05D13A003100200009F0A4FEF4E7102F22D1042395
S224002960092022001900684409F057FB04230E20A21C1900684409F050FB06231320221D40
S2240029801900684409F049FB317DB07C09F01EFB2200E0711E2008323B003900684409F040
S2240029A03CFBCFE701253900200009F0A2FE6D42C8E7C0465311010030B585B004000D0019
S2240029C002226946006809F0E3FA6B4602226068991809F0DDFA032201A9A06809F0D8FA21
S2240029E02169E06809F0F2FA6B462100D8711431052202A80BF05DF9E3690A480D21584332
S224002A00236A6944C3180A205843636A0322C01809F0BEFA19232A0010216846FFF766FFBC
S224002A2005B030BD1027000010B5040009F08EF8012078221E21404200F032F9034800F09E
S224002A405FFE2100024809F0D3FD10BD8B11010073110100054B022802D118700020704745
S224002A600322042800D000221A70F7E798F6FF1FF02170B5090401200AF0CBF98C2101200A
S224002A800AF0E5F9F0210500090401200AF0C9F9F021012009040AF0B4F9F0210120090434
S224002AA00AF0C5F98C2101200AF0B3F9F021012009040AF0CCF98C21040001200AF0A1F981
S224002AC070236A08AD002A4324021A40240F22430C4C2378934210D06378D2B22270002BF6
S224002AE00CD000230C21084808F04CFC002804D0C2B20421201D08F078FC70BD0C21034832
S224002B00F2E7C046F8F0FF1FAC1101009411010010B5F024240421000322012001F082FE8E
S224002B2003228C21012001F07DFE210001200AF07EF98C2101200AF07AF901214C200AF0BB
S224002B4047F93221014801F0BDF810BD712A00000122014B5A707047F8F0FF1F042110B5A6
S224002B600248401808F056FC10BDC046F8F0FF1F70B5224C2368002B07D06568002D22DD72
S224002B80A368AB4231DA0A3D65602369002B07D06569002D1EDDA369AB422ADA0A3D656193
S224002BA0236A002B07D0656A002D05DDA36AAB4217DA0A3D656270BD013B50202362E56AFD
S224002BC00AF0F2F8F5E7013B52202360E5680AF0EBF8D8E7013B51202361E5690AF0E4F8C1
S224002BE0DCE750200AF0D5F8E3E752200AF0D1F8C9E751200AF0CDF8D0E7C04608F1FF1F23
S224002C0010B5012152200AF0E3F8002151200AF0DFF8002150200AF0DBF8012161200AF023
S224002C20D7F80A21014801F04DF810BD712B0000002210B5024B52201A600AF0B5F810BD19
S224002C4008F1FF1F002210B5024B51201A610AF0ABF810BD08F1FF1F002210B5024B502013
S224002C601A620AF096F810BD08F1FF1F002210B5024B50201A620AF097F810BD08F1FF1FDA
S224002C8010B5002802D1FFF7D3FF10BD0122034B1A609860D8605860F7E7C04608F1FF1F0C
S224002CA0024B18619961DA615961704708F1FF1F10B5094A8CB24388624042404480028001
S224002CC08B4207D91B1B054A41189BB24B8053404B400B80043010BD764B00006417000066
S224002CE010B501480AF0D2F9C4110100F8B5060001000D4B0D4F5E403C0048880B185A880F
S224002D001D8853409BB25C40A5420BD0064C63409D4201D0FFF7E4FF821892B24A807240F3
S224002D200A80E9E7F8BDC04664170000764B0000104B04381A6810B5824202D85B68834239
S224002D4001D8FFF7CDFF0C4943880A005A404240048892B29442F4D1C3185A881C8853402E
S224002D609BB259408C4203D0044A53409C42E8D110BDC04638F1FF1F764B000064170000F9
S224002D8010B500280ED0084C236901332361FFF7CFFF064B4288534043400380A36898426E
S224002DA000D2A06010BDC04638F1FF1F6417000070B51148114CCA21241A22000AF081FF07
S224002DC00322C11D914304390B1AE31A043B18000B4C904382B24C404A8062400A8000225F
S224002DE0084C094D2340CB185A80084A29605A406B60A9601A8070BDDCF9FF1F0060002081
S224002E0064170000FCFF000038F1FF1F764B0000F0B5254D85B02A69E968244809F0E8FBB7
S224002E202A686B6822489B1A0093AB686A68296809F0DEFB2C68002C0AD0002601270396AD
S224002E406B68A34206D8039B002B1CD1002E1AD005B0F0BDAB68A34200D13E002300628893
S224002E601449534020889BB2594088420DD12100114809F0BDFB102221000020FFF796FC01
S224002E806388002B0DD1FFF72BFF0C494B402100984201D10A48ECE70A4809F0A9FB0397BE
S224002EA0E9E7E418CCE7C04638F1FF1FD4110100F01101006417000011120100764B0000F9
S224002EC0201201002F120100F8B51C4E05003368002B01D1FFF76CFF002D01DC0020F8BD84
S224002EE0032301210735B4689D437368A342F5D923006088124A434027889BB25A40974266
S224002F0018D0104A53409F4201D0FFF7E9FE002900D0B460A84207D3F3682900013320009F
S224002F20F360FFF7C5FEDAE72000FFF7DFFEA842F2D200216388E418D7E7C04638F1FF1F0B
S224002F40764B000064170000F7B505000E00002804D10800FFF7B8FF040004E0002904D1D9
S224002F60FFF70EFF34002000FEBDFFF7E1FE0024438807000093A642F5DD0322F31D934317
S224002F800193019A009B93422AD2C4186288174B5340634022889BB29A4210D03000FFF75A
S224002FA093FF041EDFD0280008F0D8FD2900020020000AF07EFE2800FFF7E2FED3E720001B
S224002FC0FFF794FE009B1818019B8342E6D8002378802380064B9A68A24201D11A689A6037
S224002FE001993800FFF764FEB6E7C0466417000038F1FF1F10B500222321034801F07CFC5E
S224003000322009F0D1FE10BD0070074013B56B4640009C1D9871D971FFF7ECFF0222210022
S224003020034809F08DFF322009F0B3FE13BDC0460070074013B56B469C1D43000120184341
S224003040FF2320706370FFF7D5FF21000222044809F076FF0400322009F09BFE200016BD42
S22400306000700740F8B517000E000400102102201D00FFF7CBFF7F210620FFF7C7FF7F216C
S2240030800720FFF7C3FFFFF7B5FF0A21244809F04BFF3A003100224809F052FF322009F05E
S2240030A078FE21000020FFF7B1FF00F0ABFE04000F2009F099FE002823D10730FFF7BAFF50
S2240030C0040000210800FFF7A1FFA30724D40420FFF7B0FF041E12D0069B984200DD1C0045
S2240030E0FFF788FF0B210E4809F01EFF0C4823002A000B2109F034FF322009F04AFE20000A
S224003100F8BD00F07FFE074B001B984202DC00F083FFCDE70224D4E703246442EFE7C046B3
S22400312000700740881300007FB505000E000B200021FFF76BFF002D04D001256D42280047
S22400314004B070BD03ACF3B22370637021002B00009502220D20FFF785FF104B7600F35A05
S224003160210063701A122823A370163B2270E37004222B0000950C20FFF774FF19212C2095
S224003180FFF744FF19212D20FFF740FF012008F07BFD032008F088FDD1E7C04648FE000000
S2240031A0F0B5002585B003930378070001910292AB425CD0532B02D001256D4257E046789A
S2240031C040220230390008F0B8FE3B000400303EDA1BA24236DBEDB2FF2DEDD13A78631E1C
S2240031E09A42E9D1092EE7D87B1C0093224B00989F57390008F0B9F8731E022B26D8019BDF
S224003200C51A37D4023CE41B039A2B199A4231DD029B5E1909F0DAFC0138054202D1300051
S22400322009F0D7FC009B2200DF193900300009F0D8FC22003900300009F061FA002815D0E6
S2240032400325BAE71A780133AD18C1E7073E022E0CD8019B09490522C81A029B012518182A
S22400326009F04DFA002802D00425A6E70025280005B0F0BD0225A0E73E1201001004000097
S224003280F0B59DB0019000200D001600FFF7F8FA0A2000F05BFD2C4809F0AAF901242B4F5A
S2240032A00F231C4209D1082009F069F9032223111340274AD05C09F062F93B00002264219D
S2240032C003A800F087FC00280EDA224A2100224809F08EF9214809F08BF9214809F035F9CE
S2240032E00028FADA1DB0F0BD33002A00019903A8FFF756FF431C01D11A4AE7E7831C01D192
S224003300194AE3E7C31C01D1184ADFE7031D01D1174ADBE7002802D10134114FC0E700282E
S224003320D8DB144809F064F99620400000F00EFD280001F075F932002900019801F044F989
S2240033400D4809F055F9CDE7481201001027000014130100561201005E120100CC120100A5
S224003360B80B0000731201008412010099120100AC120100E1120100FA120100F0B5002532
S22400338007002E002C0085B00090019102920393009B019AFB1A9A4206DC002E01D0012419
S2240033A06442200005B0F0BD382238780C4B1B1880331B7813420ED008F073FD0F28EED86E
S2240033C02D010543012E08D1039B9C42E7DA0026029B1D5501340137DAE70126FBE7C046BB
S2240033E0E31801000048704702000C00004870470200100000487047040014000048704798
S2240034000100140037B56B465D1D58710F230E4C0B40200009096B70A97009F097FB0D22FB
S2240034202321200001F068FA482009F0BDFC29000322200009F084FD482009F0AAFC2000A7
S22400344009F085FB37BDC0460060074070B50E000500104C200009F079FB0C226521200058
S22400346001F04AFA482009F09FFC32002900200009F066FD482009F08CFC002223212000D0
S22400348001F03AFA200009F062FB642000F06CFC70BDC0460060074013B56B460022DC1D42
S2240034A0030008492070505C984207D18A185378012120002370FFF7C9FF13BD02320C2A8B
S2240034C0F1D1F5E73713010010B502210348FFF7BDFF034800F048FC10BDC046791301003A
S2240034E0DC05000010B50121482009F071FC0649012008F00DFE0549022008F009FE044902
S224003500032008F005FE10BD4B130100661301005E13010070B505000B4C200009F016FBC5
S224003520E9B2200009F000FD482009F032FC012000F01AFC482009F037FC012000F014FC6A
S224003540200009F004FB70BD0060074010B5054B1B795BB2002B03DC8023184308F02AFE9C
S22400356010BDC0464CF1FF1F10B500210E4C482009F02EFC3020FFF7CDFF200000F0F4FB3C
S2240035803020FFF7C7FF200000F0EEFB3020FFF7C1FF200000F0E8FB202008F00BFE0620C1
S2240035A008F008FE10BDC0460410000010B50321332001F0F1F8FA22104C002352002000FE
S2240035C0012101F0A9F92000012109F053FD00220121200009F041FD282008F00DFE302070
S2240035E008F0B4FD062008F0B1FD0549012008F03BFE0449022008F037FE10BD00A0034065
S224003600431301005E13010010B5034B01211A56024809F022FD10BD5313010000A00340BE
S2240036200100002310B5084A985C884208D1D31859785F20FFF7E6FE282000F095FB10BD09
S22400364002331E2BF0D1F4E719130100054B70B51B6805005B680C009847030C80B22B60A7
S224003660206070BD4CF1FF1F10B50A2805DD0A20044B1B689B68984710BDC343DB17184069
S224003680F6E7C0464CF1FF1F10B5034C2368DB6898470023237110BD4CF1FF1F37B5050056
S2240036A00C00684601A9FFF7D1FF009BAB4200DC5D1E019BA34200DC5C1EE843E343C017FD
S2240036C02840044DDB171C402B6821001B6998472C7137BD4CF1FF1F10B5024B1B685B6982
S2240036E0984710BD4CF1FF1F044B10B51B689B69002800D12030C0B2984710BD4CF1FF1F61
S2240037000FB4F0B50E259FB004ABED180C232B7000236B70249B002B06D025AB249A5A2175
S2240037202800059309F03FF800230093009BE85C00280ED12B780C2B01D1023B2B702A004A
S2240037404449082008F026F91FB0F0BC08BC04B018470C2804D1FFF797FF009B0133E4E717
S2240037600A2808D13C4B00201979013149B21971FFF794FFF1E71B2868D1009B5E1CAE1990
S22400378033785B2B4ED173781A003C3A032A34D90023701C02930A2206A907F03FF903903E
S2240037A0069806A903783B3B5A4253410A22C01807F034F9069C23783B3B5A425341E4188F
S2240037C027783B00203B01971F2B19D9029B002B18D1482F01D0662F04D1039B0138591E2A
S2240037E0FFF75CFF0398712F26D0019B002B17D1009BA41B1B190093AFE70293B01CCAE7CA
S2240038000134DDE7029B3F2BEFD1039B192BECD10120682F02D06C2FE7D10020FFF75CFFF6
S2240038200134E5E70A2206A9300007F0F7F8069C23780193712B02D1FFF716FFF0E7019BD3
S224003840632BD2D1431E9841C0B2E7E7FFF74CFF83E7C046650301004CF1FF1F10B5244B0F
S224003860244C236000F0E8FA05282FD10221433009F076FA4B20002109F072FA482009F000
S224003880B3FA002819D01C4B2360FFF761F9482009F04FFA4B2009F04CFA332009F049FA48
S2240038A023681B689847FFF7EFFE0520FFF7DCFE1248FFF725FF002007E04B2009F094FAD1
S2240038C00F4B002811D10120404210BDFDF760FD0028F8D10321333009F042FA332009F0C5
S2240038E083FA084B002800D0074B2360CFE7C04684E200004CF1FF1FA0E200006E130100A5
S22400390030E200004CE2000068E2000002000A4B10B508001A70012A0BD00023022A02D043
S2240039209A4202D0013B180010BD06F05FF80300F9E7FEF749FAFAE747F6FF1F094B70B596
S2240039405A680024042A09DD1D6800F061FA064A401B0123904200DC23001C00012020405B
S22400396070BDC04654F1FF1F804F1200002110B503482022416008300AF0A3F910BDC04616
S22400398054F1FF1FFF22094B10B51A70012806D0022807D0002807D10AF01FF810BDFEF728
S2240039A069FAFBE7FFF7E2FF0020F7E747F6FF1F37B5050000201C00094B1856069B009469
S2240039C0019313000A00290008F0B0FC0312DBB2612B03D1631E9C41644220403EBDC046FD
S2240039E047F6FF1F70B5114C0500266800F010FA0F4B801B984201DDFFF7B8FF00F008FA0C
S224003A0061682060CB101F2B0ED807228A4321000831CB180121914095401878884328438C
S224003A20187063680133636070BDC04654F1FF1F804F1200F0B591B000900D00160007F030
S224003A4099F905902978002906D1009807F092F9059BC01A11B0F0BD6F1C252900D082E08C
S224003A606978AF1C252900D17DE0002302932D2903D10133A978EF1C02932023049330290F
S224003A8002D10491397801373B000A22301D00242A290ED134685F1C19780600002C0DDA05
S224003AA001236442029309E054436418303C19780133080030381F000928F5D92E2902D1BD
S224003AC07B1C3978E2E7331D03933668642951D007DC622942D044DC58293DD00024334FCA
S224003AE054E0732951D031DC7029F7D102223049009807F04DF91023082401932033049313
S224003B000022272508ABDA7706ABED18300001990AF006F9274B013D5B5C061E2B70F5D1C9
S224003B20273606ABF618761B029B002B01D1A64236DB32002900009807F02AF9B44216DD4A
S224003B402021009807F031F9013CF7E70A2301937529D5D07829C1D1102300E00223019348
S224003B60CEE7F1B2039E009807F01FF90396039E3D0067E70A230193002EC1DA2D2100986B
S224003B80764207F012F9013CBAE73500280008F0CAFD0600002CC7D08442C5DA2600C8E769
S224003BA00499009807F001F9013CC0E7DC0E0100941301007C13010010B5002800DA0448C0
S224003BC008F0C3FC041E01DB08F0D9FC200010BD204E0000F7B507001600019300291BDD85
S224003BE000244D1EAC4208DA019808F0AEFC0A2807D1002E01D008F0C2FC00233B55200094
S224003C00FEBD002801DB1B2809D1002E02D00D4808F0BFFC00233B7001246442EFE708281C
S224003C2008D1002CDED0002E02D0074808F0B1FC013CD7E738550134002ED3D008F09FFCB7
S224003C40D0E7C0468D1301009013010010B513000A000249096808F0DEFC10BD00E200003E
S224003C6007B5002807DB054B1B680193984203D9034809F00BFA00200EBDC04600E2000040
S224003C809713010010B5002800D10348002900D1014906F015FF10BDDC0E010030B500235D
S224003CA00C24074A210059435558854202D10020885030BD0133102BF4D101204042F8E7DF
S224003CC084F1FF1FF8B50D000400FFF7E7FF08F066FF0C2300229C460A4E67465743B919B1
S224003CE00B68002B07D1BC511C008D604B6008F05AFF2000F8BD0132102AEED1012464426B
S224003D00F5E7C04684F1FF1F0D4B70B51A680D4B1968551A12D00C4C1A602600C036226888
S224003D20002A08D06368A168EB1863608B4202DB0023636090470C34B442F0D170BDC04651
S224003D4080F1FF1F7CF1FF1F84F1FF1F70B50500044C266800F060F923689B1BAB42F9DD5C
S224003D6070BDC04680F1FF1F1822054B504399691A00C9439369DB435B1A8342FADD704755
S224003D80FC700340C0210D4A0D4B0E485360036A09061B021B0A0B43036200239360073315
S224003DA013608022084BD2031A6001210122074B49421A60FC335961DA61704710E000E000
S224003DC07FBB000000ED00E000E100E0007003400022024BDA6001321A617047FC700340A6
S224003DE010B5FFF7F5FF024B1A685868904710BD90F6FF1F024A1368013313607047C0460D
S224003E0080F1FF1F014B18687047C04680F1FF1F014B9869C0437047FC70034070B5040017
S224003E2015000023034A08F0FFFD200006F0A2FF286070BDFFFF0000014B18787047C04601
S224003E4048F6FF1FF8B500F0B5FA634B634A64499950F821634A89019950634A6349995049
S224003E60FFF790FF00F08CFD00F008F908F0ACFE8023DB001B7BFE2B05D108F08BFE0028F0
S224003E8001D100F0CDFB042008F053FFC02100240326FF258900270028003740FF00B8408D
S224003EA0A308534A9B009B185A58013482438020B84002435A50302CEDD14E494E4A0B6A76
S224003EC047201A40C0231B04134380220B62484BD2051A60802212061A60032100F068FC25
S224003EE00221452000F058FC0221462000F054FC0221472000F050FC404800F0EFFC0321DB
S224003F00312000F055FC0221292000F045FC0221200000F041FC0221312000F03DFC3848E0
S224003F2000F0DCFC0321202000F042FC0221202000F032FC0321212000F03AFC02212120B2
S224003F4000F02AFC2F49304800F09AFC0321812000F02EFC0621812000F01EFC032180205B
S224003F6000F026FC0621802000F016FC2749284800F086FC09F00AFE0321402008F0F0FEA4
S224003F80402008F031FF234B0422002800D1052240201A7008F0CDFEFEF732FE08F0E3FD36
S224003FA006F07DFE00F04EFBFEF7B2FD09F0EFFD09F0DAFD09F00AFE0021022008F008FFB6
S224003FC0002008F069F9012008F066F9FFF746FCFDF7DEF9F8BDC046007004403410000034
S224003FE0C01CC400381000003C1000000100800700E100E000ED00E0FFFF00FF00600740CE
S2240040000070074000366E0100600640006CDC020070064048F6FF1F70B5002500F0A0F96A
S22400402000F0A2FC064C6557002D07D10123237000E000BFFFF768FE20BF257070BDC04681
S22400404049F6FF1F10B5FFF7E3FE0400522008F0A0FE512008F09DFE502008F09AFE00F062
S22400406083FC00F029FEFFF7D3FE034B001B9842ECDD00F0B3F910BDFF0D270710B5144B0B
S224004080144C154A1548E25005F03EFC3821144B144A1A60144A13788B4300211370134A56
S2240040A00800073205F08CFC114805F0EFFB114B1149E2581140802252040A43E250E25813
S2240040C00E4911408022D2040A43E25010BDC046441000000070044000000310BCE20000B0
S2240040E0D8F9FF1F00127A00004006409E130100C4E2000004100000FFFFFFFCFFFFFFF365
S224004100012210B5044B52425A6004494132012000F09EFD10BDC0468CF2FF1F4CF2FF1FDE
S22400412070B5114B1B78002B18D0104B1A69DB689A4213D00E4C200008F038FD00280DD1C6
S22400414080210C4D3F232A0049000B4807F078F9021E04DD2900012000F098FD70BD2000B3
S22400416008F02FFDFAE7C0468BF6FF1F8CF2FF1F94F2FF1F4AF6FF1F98F2FF1F002010B565
S224004180054B1B78834206D0044C6368834201D1FFF7B6FF606810BD8BF6FF1F8CF2FF1F6F
S2240041A010B5FFF7EBFF002803DD034806F0C6FD10BD01204042FBE78CF2FF1F802110B5F5
S2240041C00B4B0C4C1B78020049002000002B03D107F00BF9002010BD07F0F6F880212000A1
S2240041E0490007F027F93E28F4DDFFF799FFF1E78BF6FF1F98F2FF1F002210B5024B0348F7
S2240042001A7008F0DEFC10BD8BF6FF1F94F2FF1F10B5D0240388E400A34219D0902424015E
S224004220A3421DD08088002838D11D4CA3422AD01C4CA3422CD01C4CA3422FD10400002A62
S2240042400CDD0722194809F034FD08F021FF05E040880622164908F022FF0400200010BD66
S2240042604488012CDED1134B13481C7008F0A9FC200000F0CBFC022000F0C8FCFFF740FFCD
S22400428008F006FFE9E70722084900F0FFFCE4E70A220A49022000F0F9FCF1E70124DDE7D5
S2240042A0A1210000212200002120000044F2FF1FCCE200008BF6FF1F94F2FF1FA8130100B2
S2240042C0012803D10020024B06C370470120FCE78CF2FF1F10B5012804D1044808F071FCDB
S2240042E0002010BD01204042FBE7C04694F2FF1F10B5FFF755FF00280ADB074B1A78187015
S2240043000D2A01D10A28F4D00D2800D1033810BD01204042FBE7C0468AF6FF1FF8B50600AF
S2240043200C000500AB1B9C4203DCE043C0172040F8BD2F780A2F0CD10D20FFF73FFFEFF3D5
S2240043400583002B05D0282B03D0044807F03BF880473800FFF732FF0135E3E7B94C000009
S22400436010B56B460348181AFF2802DC024808F08DFE10BD00E0FF1FDC14010010B5094A9F
S2240043806B46100008499A4202D214688C4207D00649CB1A8A1A091A054808F029F910BD06
S2240043A00432F0E700E0FF1F7C3D3D7C00F0FF1FEB1401001023064A11690B4313616A46FE
S2240043C0044B0549934200D3704702C3FAE7C04600ED00E000E0FF1F7C3D3D7CBFF34F8F63
S2240043E0034B044ADA60BFF34F8FC046FDE7C04600ED00E00400FA05024B1A7858780002E1
S2240044001043704700F0074010B504001F4808F0EFF821001E4808F0EBF8230602D51D4880
S22400442008F0B7F8630602D51B4808F0B2F8A30702D51A4808F0ADF8630702D5184808F072
S224004440A8F8230702D5174808F0A3F8630502D5154808F09EF8A30602D5144808F099F835
S224004460A30502D5124808F094F8E30702D5114808F08FF8230502D50F4808F08AF8A304CA
S22400448002D50E4808F085F810BDC0466514010071140100851401008F14010095140100BA
S2240044A09E140100A7140100AE140100B8140100BD140100C4140100CC140100D614010081
S2240044C0F0B5030080261A4C1D1AAA420DDC802300249C46174E944214DBBFF34F8F164B53
S2240044E0164ADA60BFF34F8FFEE790252D055D196560267025786DB2002DFBDA8025ED00A0
S2240045005B19E1E755233360DB1833600F597B1C0CD0C025ED04064B45192D195D606546BB
S2240045209F601D701D786DB2002DFBDA0434D2E7000002400481044000ED00E00400FA0568
S224004540F0B50E0087B01E490700150003A80C22009309F0AEFB08F0F5FA032334003F0655
S2240045609E43F719174E1C407C33337008F017FB0190009B002B06DC0024019808F013FB2C
S224004580200007B0F0BD01235B4202932B1B1A5D02A96254009A0134013A01350092042C1C
S2240045A001D0002AF3D17760029B0648B36002AB053398477F2334781C40DED10437D8E74B
S2240045C050FE0000000002400300F0B503260B43C3B004000D00334219D10F499319013906
S2240045E0FF2202A8019309F064FB08F0ABFA08F0D6FA70220700094B20001A70019A02ABBB
S224004600B243290001339847380008F0CCFA0120404243B0F0BDC046C144000000000240DE
S224004620082313B504005B420193054B0422C01801A908F0D6FA024BE058019BC01A16BDBF
S2240046400C04000010B5104B104C06210220636000F000F90621022008F0E9FB0321432028
S22400466000F09AF80321442000F096F8606800F083F8606808F086FC2C226368DA70802233
S224004680034B92011A6010BD00B00640A0F3FF1F00E100E010B5064B5B681A79920606D5A6
S2240046A08021DA794900D2B2024806F08DFE10BDA0F3FF1FA8F3FF1F70B540230500074C52
S2240046C061680A791A42FCD0A3682A0006210220E36008F0B2FB2800256070BDA0F3FF1F70
S2240046E0034B1A68824201D100221A607047C046A0F3FF1F70B50500064C130060680A00E4
S224004700082108F069FC2900034A606808F054FC70BDC046A0F3FF1F00366E01F7B505004E
S2240047200E0000240192B44201DB2000FEBDFFF769FB070080210948490006F06BFE0028DF
S22400474008DAFFF75FFB019BC01B8342EDDBFFF763FCEFE728550134E5E7C046A8F3FF1FB6
S224004760044B10B50A009968D9600100586808F066FC10BDA0F3FF1F43039B0F054A9B0069
S224004780D21A0123C003C00E834011680B4313607047C04640800440044A43119B181F221F
S2240047A002409200180380184170704749000400044A43119B181F2210401B0380001954C7
S2240047C07047C0464900040070B50500140008F0C7FA054B6811C0181F231D40AD000003E3
S2240047E04019847070BDC0464900040010B50249024808F057FA10BDFCE2000000900440C5
S22400480010B50449044808F04DFA0449044808F049FA10BD7CE3000000B00440FCE3000023
S22400482000C0044070B516000D00040008F0E9FA8022074B5200E4182B042D0C3243240302
S2240048402D04211D154313430834CB67E56770BD4900040070B504000D0008F0DAFA074BAE
S2240048602A04E41880232D0C5B0024032D04211D1D431A430834CA67E56770BD490004004C
S224004880F7B5002605000F00340001918670114A6300D15E019809F040FA0F4B181A09D54E
S2240048A04042B84201DA260007000134402CEED1340003E0B842F8DA0028F4D1A023E4B2E6
S2240048C06C70AB702B79FF23EB700023AB708033AB70F7BD5CFE0000A0860100054BC3184F
S2240048E05A1E934100222233C27043705023C3707047C04600A0F8BF064B984203D1002929
S22400490001D00139C9B20023C37050331A434170C270704700600740F8B50C001E00002797
S224004920050010480314934203DB01374010082FF8D1110007F03CF900232B6007331F403F
S2240049402B00C022013808332F60A860DA672823E4002C19E360A8686421704309F0E0F928
S2240049602061F8BD006CDC025521034A034BD1504918D1507047C046007004400411000078
S22400498088230C2110B5034A5B01D150FFF7ECFF10BDC0460070044007B5CB6801938B68CD
S2240049A000930CC90100024807F022FE07BDC0469D150100F7B5036C456B00936B46354E19
S2240049C01B7804000193AE4243D935000026324807F00EFE37000199304807F009FE616BB0
S2240049E02F4807F005FE31002E4807F001FE00992D4807F0FDFD21002C48FFF7CDFF21002D
S224004A002B481031FFF7C8FF21002A482031FFF7C3FF210028483031FFF7BEFF002F07D0D9
S224004A2020233A00390025483D00FDF7DFFE20358022234BD2005B1B934200DD13002A00A4
S224004A4029002048FDF7D2FEFFF7FCFAFFF7C6FCF7BD29682F0001606B684360AB68836017
S224004A60EB68C3602B6903636B698363AE69C663EB690093019B032B00D0023E124B013B6D
S224004A80B342A8D1114807F0B3FDA36B5E1F00230193A0E700E0FF1F0D1501002A15010079
S224004AA03715010044150100511501005F15010068150100711501007A1501008315010040
S224004AC000F0FF1F951501008DD000001E15010072B60948FFC041464A4653465C46654652
S224004AE06E467746FEC07946EFF3038206C002488546FFF75FFF0000B85F0020F0B501252B
S224004B000B4C4000241863780A4EDF009C46BB572800002B0BDB60464540F0194280402226
S224004B20416000201340C03A13436570BB55F0BDB0F4FF1F00F0FF1F002010B50B4C1A2232
S224004B40A35E834211DB6269D1181822A05EC01A0200402800DD40229B183F2801DC012314
S224004B605B4200206383FFF7C9FF10BDB0F4FF1F80221A4B1A48D202195811431950194973
S224004B80585802435A50C022174B5A735A7B52B2002AFBDB154A1648110AC9B20170110CA6
S224004BA01448C9B201701449120E0A70FF21134A134811700122027012480270C6200F32D0
S224004BC05A72114B80001A588A431100C0220A431A50802252041A607047C046007004405C
S224004BE00410000034100000FF20074000F0FF1F9C200740B0200740B420074080200740C8
S224004C00842007409420074000E100E07F23184010B50C4A84004100E3B28B54521802210D
S224004C20214351700021084CDB001A19195540231172137611740D22044B30308000C254F1
S224004C4010BDC046B0F4FF1F00F0FF1F0020074030B50124064D4000435D5C404455054886
S224004C60DB00C4186280802261601A54002030BDB0F4FF1F00F0FF1F10B5034940221C3128
S224004C800020FFF7E5FF10BDB0F4FF1F7F2310B518400BD1074BD889904200DD1000002257
S224004CA0596118835A83FFF747FF10BDFFF726FFFBE7C046B0F4FF1FF7B501264C4B1C78F1
S224004CC00193E4B234421AD002230020494D2B70494B5870494B1870FF23019A1370484A85
S224004CE01370484A13768F22474B1A70474B1861FFF78CFFFFF7C0FF2E70FFF77DFAA3074E
S224004D0002D5FF223E4B1A70630701D507F027FF08231C423ED00F253D4B18783D4BC0B249
S224004D208210D200D65C0011B6082E40092E4ED00D2E0BD0012E2AD19B185A88002842D136
S224004D40002A22D031485968083035E0D21856682E4A3788400017817188101851818C462F
S224004D60B1889181F6880821D68140264078C000C654C3184B4000211970A023DB009F425E
S224004D8017D16346136108F083F9FFF775FF0122184B1A70E30601D507F0DDFE63B2002B4A
S224004DA004DA02211C4A13788B431370019B1C70F7BD083210000A00FFF72AFA0028E4D085
S224004DC0154B1D70E1E75968FFF77AFADFE7002807D10E4B094A1B69DBB21370FFF7ACFE48
S224004DE0D5E79B185A885968FFF774FACFE7C0468020074094200740FF2007409820074035
S224004E00882007400020074084200740B0F4FF1F9020074000F0FF1FC0200740F7B50500AD
S224004E20009101920099280008F0C0F9041E09DBFF280EDC2A68002A07D0AB68696899426E
S224004E4002D101242000FEBDD054AB680133AB60E8E780235B00984201D10024F2E7023C50
S224004E60FF3C1C2C33DC1C4B6400E65E1B4B2800E15E08F072F901993618280008F096F9C5
S224004E80041EDFDB164A43009F5E164A2800995E08F063F9AB683F18BB421BD32A68F318CC
S224004EA0002A12D06A689A42CBD3013E04D280235B009C42B6D1D0E7AB682A68D91B515C20
S224004EC0D154AB680133AB60EFE7AB60EFE709246442B7E70A24FBE754FF00008EFF00003E
S224004EE018FF0000DCFE0000F0B55A4C0521A54408AB049327AB059310AB069318AB050092
S224004F00079308F02AF90521861C280008F025F90421431C2800019308F01FF98F23FF369A
S224004F2004005B009E4203DC019B00271E2B0DDD0320404257E00321280008F00EF9464BA0
S224004F407A00D35EB6AA5B0098520137231D9F42F1DB231D01DA0424644200203E49221D08
S224004F60B6AF132A07D1390004A808F0ABF8041E11D00420DDE753005B5E01325B00F85263
S224004F80EFE704A9280008F011F90F282EDC631C640038531C00019BF3180393A342F0DCA6
S224004FA03200390004A808F08DF800284EDB05D0049B00229B5EF31A012B47D17100791825
S224004FC0019A06A808F07EF8002841DB06D0069B0020185E019B181A012839D106AA04A966
S224004FE02800FFF71BFF1D4B9D44F0BD102819D1002C27D0631E5B00FB5E02212800029324
S22400500008F0ABF80330039A231893421CDC5A00BA180028BED06C46410024894942545265
S2240050200138F6E7112807D10321280008F095F8033000230293E6E70721280008F08DF8EE
S2240050400B30F6E7052074E7062072E7072070E708206EE7ACFAFFFFC8FF00005405000075
S224005060F0B5ADB002930B68119204930F930023029A0E90126816A8019110930592129240
S22400508013931493159305F00FFD041E02D002202DB0F0BD01210EA808F05FF80221039098
S2240050A00EA808F05AF800284FD1139A129E111D14901590B142EAD8119D531C1393971CA4
S2240050C0A85C1397EB5C03321392EF5D1B020343D843BC46FF270740BC4502D0022040424C
S2240050E025E01391AA5CFF25000A28408242F5D1C9188E42CBD3109A0E98069207909A185C
S22400510000281FD00F9991420BD20120C0E7139911984A1C1392109A551C1095415C0E98F0
S2240051208154013BF3D2039B002BB3D02000109B0893089A019B1A60139B0993099A029BA0
S2240051401A60A5E710921391EDE7012810D10AA90A000B4B21CB21C20CAA100060CB60C02D
S2240051600EA8FFF75BFE0028DDD000DD90E7DEE7022803D10EA8FFF7B7FEF4E70120AEE747
S2240051807CE40000F7B50700C02A09D080235B009A4242D0F63B802A03D020204042FEBD1D
S2240051A00C233C000E0055090834AD003B607C6001944D19B54232D13B680C2B37D00E2BA4
S2240051C064D00A2B27D10021FF25534E53488B00E26827689B5901317B40170A2F40C75DEF
S2240051E07B40170EC75D3F047B4017002F40C75D3F067B40170C2F40C75D3F027B4067687D
S22400520023617B40A76863617B40A3615340E36110340A29DBD10020C1E70E23C1E73000ED
S22400522006F070F8019B043601C30193C2E70021FF25394E39488B00626927689B590131DC
S2240052407B40170A2F40C75D7B40170EC75D3F047B4017002F40C75D3F067B40170C2F409C
S224005260C75D3F027B406768A3617B40A768E3617B40E76823627B40276963627B40A362C9
S2240052805340E36218340829D5D1C4E70025FF20224AE169204EAB000F0A9B59074026686E
S2240052A0D75D73407B400F0ED75D66683F047B400F000740D75D01353F067B400F0C074008
S2240052C0D75D3F027B4023627340A66863627340E668A36273401F000740D75D2669E36267
S2240052E07E401F0ED75D3F0677401E0A06401B0C965D0340D35C36027E401B0473406669FD
S22400530023637340A66963637340A3634B40E3632034072DBDD17EE78CE40000AD15010042
S224005320F0B50500C9B002A80C00160007F091FF2B0008336B603200210002A8FFF722FFAD
S224005340019000281FD1029A039B2A601101013A0092FF225B1819689446A9605968103BF8
S224005360E960996929612900D869183168611D4D009A002A0DDC1A680A605A684A609A6866
S2240053808A60DB68CB6002A807F06AFF019849B0F0BD002066461A58134C1640AE5D170E44
S2240053A0B600EF5D3659114CBF003F5964467E40170A2740EF5D0E4CBF003F596446120CEE
S2240053C02240AA5C7E400B4F9200D25956400E5004301028DED1009A1031013A0092103B89
S2240053E0C6E7C046AD150100B4E40000B4F00000B4E80000B4EC0000F0B593B04668019093
S22400540008000D00039205F07DFF33684340281D009305F077FF776847402800083005F050
S22400542071FFB468444028000C3005F06BFF019B35001B68F6685B10013B0493FF2310353D
S22400544046402A69A1480592009A390E1A40920012589F48890009589E484A4029684A401B
S224005460310A1940890009589B484A40210C19408900095895484A40310001921A400692AF
S2240054801940009A89000958120E91489200125890485140EA685140220A1A409200125867
S2240054A08D4851403A0C1A4092001258300E51400A0A1A400792220002911A4083499200A2
S2240054C05258834980004058A9684240380A4A40184080498000405800994240080C18401A
S2240054E07D49800040581F4078494240BF007F58100C7749240E1840A40008906058696866
S22400550047404F400099360C0C0A1C407149A40060581E407049B600745878406040010E0D
S224005520009169690700099101991F400C0A02991C400E0CA9691E400B91110019400C912F
S224005540010A19400D9101990A96090C19408C460299160E090E0E91E969120A0F910299AC
S2240055601A40194002911092019A000C120E0192049A18401190002A52DC584B09991A5D39
S224005580DD5D12024D4055400A9A0C999A5C5C5C120455409A5D0B99120655400D9A4C4079
S2240055A09A5C1202544062469A5C120454400E9A9A5C12065440029A985C0F9A5040109A43
S2240055C09E5C119A360270409E5C019A360470409E5C079A3606995C069A4640985C059A35
S2240055E009025040089A4140985C009A00044140985C00064140039805F0AFFE039B290056
S224005600181D05F0AAFE03982100083005F0A5FE039831000C3005F0A0FE002013B0F0BDFC
S224005620069A2A489100009A085829499200525828495040059ABF005040079AB600920042
S224005640525825495040089AA40092005258203550401E4A0090B8581D4AB2585040099A8A
S22400566050401C4AA25850400A9A920057580C9A4740164891000E9A0C5815499200505800
S2240056800B9A444054400D9A12499200505862461149920044405058029A44400B48910048
S2240056A0019A08580A49920056580F9A70405040109A084992005658119A074992007040F6
S2240056C05658049A4640013A0492BAE6B4E40000B4F00000B4E80000B4EC0000AD16010046
S2240056E0F0B5002487B084460391029201930594072800D82DE1009003980299059A019B70
S2240057001F0CB9461F043F0CB84640C8370C3604360C444674434B465E434D467D434346D8
S2240057205F43330CED183B0CED18A418002255413304E41855413B04E41855410B68E418B5
S2240057406A4110C140C8370C3604360C444674434B465E434D467D4343465F43330CED18CC
S2240057603B0CED18A418002255413304E41855413B04E41855410B68E4186A4110C140C8D7
S224005780370C3604360C444674434B465E434D467D4343465F43330CED183B0CED18A41808
S2240057A0002255413304E41855413B04E41855410B68E4186A4110C140C8370C3604360CE0
S2240057C0444674434B465E434D467D4343465F43330CED183B0CED18A41800225541330498
S2240057E0E41855413B04E41855410B68E4186A4110C140C8370C3604360C444674434B46BD
S2240058005E434D467D4343465F43330CED183B0CED18A418002255413304E41855413B0458
S224005820E41855410B68E4186A4110C140C8370C3604360C444674434B465E434D467D4359
S22400584043465F43330CED183B0CED18A418002255413304E41855413B04E41855410B6807
S224005860E4186A4110C140C8370C3604360C444674434B465E434D467D4343465F43330CB4
S224005880ED183B0CED18A418002255413304E41855413B04E41855410B68E4186A4110C1B9
S2240058A040C8370C3604360C444674434B465E434D467D4343465F43330CED183B0CED189B
S2240058C0A418002255413304E41855413B04E41855410B68E4186A4110C10592029103900D
S2240058E0009B083B0093072B00D905E7072362461A4094466346002B2ED003980299059A8E
S224005900019B1F0CB9461F043F0CB84640C8370C3604360C444674434B465E434D467D43C3
S22400592043465F43330CED183B0CED18A418002255413304E41855413B04E41855410B6826
S224005940E4186A4110C105920291039001235B429C446346002BD0D1059C02990B68E3184D
S22400596008C10598012483429241524205928342F4D307B0F0BDC04670B50E000400042182
S224005980300006F0F5F8051E12D0A16800290BD06268920008F08DF96168A068890005F0B4
S2240059A0F3FFA068FDF7ECF900206660A56070BD10204042FBE7C046F0B585B0002A54D035
S2240059C0824252D9802400232406144203D101336408202BF9D19A4020240D0000920A003C
S2240059E0E41AE54098409A405B42DB172B4003430193009B01981D0C130C0293290093B27A
S224005A00039308F08DF96B461E88030004007343184FBC4205D94919013C9B1BB942F8D9F5
S224005A2004E002980A0412189A42F4D3009A019B62431804029B2900C018801A08F070F978
S224005A40030073439C46B84207D9634649199B1B01389C46B942F6D904E0039B0A04D218AC
S224005A606245F2D32404201801E00120404205B0F0BDC046FFFF0000426830B5002A10D0D2
S224005A80154B8568D3189B00EC58002C0FD1043BEB1802E05C68002C09D1013A043B002A4C
S224005AA0F8D18B681868431E9841404230BD8B681B68002B01D10068F8E7012AFBD80068DC
S224005AC0002805DB2A689342F0D302D80020EDE701204042EAE7C046FFFFFF3FF0B589B02D
S224005AE00F9C1F0003935B682668013304900D0006929E4200D2FBE0109B1B68002B00D1CC
S224005B00F6E0FEF789FA109B226818689200002108F0D7F8109A2B6812687D680593079236
S224005B20AB4200D9A8E0002D00D1A9E000276B1C9B00079E0293069A049B11689B68BA0093
S224005B40D2580C6833685443E4180E9B01925C43059813003200FFF7C3FD039B3200996830
S224005B6028002300FFF7BCFD00220199331D3160029901375A501E00BD42DCD10B00079A96
S224005B80043BD3180A000793049C0799A06808F090F86368002B00D1A7E0574AA0689A18C1
S224005BA092008158002900D073E0043A821803E05168002900D06CE0013B043A002BF7D103
S224005BC0039B9C68596801940023002911D04A4A8A189200A758043AA218002F03D031E0C9
S224005BE05768002F2ED10139043A0029F8D1002B28D1002D23D00100002400230A68019EAC
S224005C009446D21A9C459B419C460A6080CE013401966646BA429B417642B4465B42D21BD6
S224005C20634404C1A542E9D1AD004019002B01D105E001230268D11A02C09A42F9D3002067
S224005C4009B0F0BD8B4220D82AD30194002BD0D0294A9A1892008758A1588F42C9D81FD3C4
S224005C60043A05E08758A158043A8F42C1D817D3013B002BF6D1BCE70595002D00D055E7EE
S224005C80042302931A007FE794680194002DB2D1D5E7039A51680029F6D09468019496E773
S224005CA0109B1B689C46002DC9D01900002600230C680136E21A0A6080C89C42A441BA428F
S224005CC09B4164425B42D21B1B1904C1B542EFD1AD002C006444002B01D1B0E70123226840
S224005CE0D11A02C49A42F9D3A9E7049B986867E704204042A4E7C046FFFFFF3F0023012210
S224005D00436002608360704710B5041E0ED08068002806D06168890005F036FEA068FDF7BD
S224005D202FF80023012263602260A36010BDC046F0B5050083B00E00884232D08B68002B01
S224005D4046D04C68013C002C0DD0A2009958002919D1043A9B1802E05A68002A13D1013CA8
S224005D60043B002CF8D133686A682B60002A1BD106F0E8FE01246B68A3423CD3AB68A7005A
S224005D80019318001CE033686A6801342B60A2421CD206F0D7FE264B9C42ECD910204042C6
S224005DA000E0002003B0F0BD04270124A868121B9200C019002107F084FFAB68180001932C
S224005DC0B1683A0007F075FF0020EBE7A700EDE70028E6D08068002806D06968890005F080
S224005DE0D3FDA868FCF7CCFF002301226B602A60AB600020D6E70421200005F0B9FE0190FB
S224005E000028CBD0A96800290BD06A68920007F050FF6968A868890005F0B6FDA868FCF7E6
S224005E20AFFF019B6C60AB60A7001800C8E7C04610270000F0B54B6885B00D0006001400DD
S224005E40002B12D08A685349591889005058002800D072E00439521803E05168002900D07A
S224005E606BE0013B043A002BF7D161680023002912D0484AA0688A1892008758043A8218E9
S224005E80002F03D03CE05768002F39D10139043A0029F8D1002B33D10023012202930192E0
S224005EA00393B44200D16AE0B54205D029003000FFF73EFF071E16D1012365683360002D21
S224005EC010D0344BA468EB189B00E258002A39D1043BE31802E05A68002A33D1013D043BBD
S224005EE0002DF8D100270398002806D00299890005F04AFD0398FCF743FF380005B0F0BD1D
S224005F008B42C9D843D3002BC6D0AA6894466146204A9A1892008F588158B942BCD336D89E
S224005F20043A06E0614687588958043AB942B3D82DD3013B002BF5D1AEE76168002900D089
S224005F4097E7A9E7B2680023002610680136C11A116080CC98428041B9429B4140425B42F3
S224005F60C91B1B1802C2AE42EFD3002B01D1B9E701231168C81A01C28B42F9D8B2E7210058
S224005F8001A8FFF7D5FE071EADD101AC8CE70A277F42B2E7FFFFFF3F70B504000D0006F0D4
S224005FA0D1FD6268002A12D0A66892000021300007F087FEEB4302220020E917DB17134014
S224005FC06D18A2684D40013B1560236070BD0421012005F0CDFD061E13D0A16800290BD026
S224005FE06268920007F065FE6168A068890005F0CBFCA068FCF7C4FE01230422A660636000
S224006000D4E710204042E1E7436802005B0100208B4209D91F2390684A099200105819408E
S22400602003000120CB4018407047C046F0B546680022002E0DD000270124856800232868AB
S22400604002E00132202B06D00100D94001330C42F7D01000F0BD01370435BE42EED1002293
S224006060F7E7C046426810B50023002A20D0531E8168002B22D09A008858043A8A18002892
S22400608003D017E05068002814D1013B043A002BF8D12024086880220021120603E001315A
S2240060A05208202902D01042F9D0631A0733DB08180010BD5B011C002034ECE70868202479
S2240060C0E9E7C046F0B5032515406B1E9D4116004368920883B0AD1804000191AB4215D0A1
S2240060E08068002805D0990005F04EFCA068FCF747FE002301226360A360226006F022FDFB
S224006100364B9D4267D863689D4238D806F01AFD6268002A19D0A76892003800002107F046
S224006120D0FD01230022A06802602360019B002B08D0AF001900BB1BC018320007F0B9FD66
S224006140002D39D1002003B0F0BD0421012005F00FFD071E3FD0A16800290BD0626892009F
S22400616007F0A7FD6168A068890005F00DFCA068FCF706FE01230422A7606360CDE704213B
S224006180280005F0F5FC071E25D0A16800290BD06268920007F08DFD6168A068890005F099
S2240061A0F3FBA068FCF7ECFD6560A76006F0CAFC6268002AC9D0AEE7A368043FDF19BB421B
S2240061C0C0D839681A6809BA12BA02C3043F7A60BB42F6D9B6E710204042B4E710270000A1
S2240061E0F0B5446883B005000191A400944234D31CD9032311008768994379581340DB0008
S224006200D9400B00FF21194230D1130003268C4604E03858C8406146014227D10133310008
S22400622018001940B043C9009C42F2D1002A11D0002303270198511E411818003E00AC6868
S224006240B84324581E40F600F44001330C7001399A42F2D1002003B0F0BD121B8E18080056
S224006260002107F02EFD01962200DFE708204042F1E7C0461F23F0B5426883B00B400500BB
S2240062804C090193002A23D0571E8068002F00D186E0BB00C658043BB446C318002E04D041
S2240062A083E05E68002E00D071E0013F043B002FF7D106682037802300201B0603E001302E
S2240062C05B08202803D01E42F9D03B1A9C46614453018B4234D3002C16D094425CD2E143D4
S2240062E0364BA868D2189200061FA3008218F618890053185B68043A53609642F9D12200B0
S2240063009200002107F0DDFC019B002B15D06B689C4212D20199202600200F00AA68A300F0
S224006320761AD218116801340B00BB40F140034308C26B680800A342F4D8002003B0F0BDDD
S2240063401F260E40731E9E414909761806F0FAFB1B4B9E422ED86A689642BCD9042130008A
S22400636005F006FC071E25D0A96800290BD06A68920007F09EFC6968A868890005F004FB9F
S224006380A868FCF7FDFC32006E60AF60A3E77B011F009C4620378EE7002AB5D0A868AFE7C5
S2240063A0002306689C46203785E77B011F009C46203780E710204042C0E7C046FFFFFF3FCC
S2240063C010270000F8B5436804004D09AB423FD31F221140AB4233D0002D18D08368A800A6
S2240063E09C460300002260445E42036801328351636804305F1B9742F7D8934207D90025E0
S2240064009000604420C0636801329342FAD8002914D0002B12D020260025254AA4689B180B
S2240064209B00E318761A043C1868043B0200CA40B0402A435A6005009C42F5D10020F8BD91
S224006440002905D1002BF9D0A36800229C46D6E706F078FB6268002A0CD0A568920000217F
S224006460280007F02EFC00210123A268002011602360E4E70421012005F07AFB051E13D0EA
S224006480A16800290BD06268920007F012FC6168A068890005F078FAA068FCF771FC01233C
S2240064A00422A5606360DAE710204042C7E7C046FFFFFF3F426870B5002A10D02E4C836848
S2240064C01419A4001D59002D4BD1043C1B1902E05C68002C45D1013A043B002AF8D14C68AA
S2240064E00022002C3BD0244B8D68E3189B00EE58043BEB18002E03D00BE05E68002E08D103
S224006500013C043B002CF8D10026002A01D1300070BD944228D30B685E429442F7D806688F
S224006520002E01DD002B24DB002B01DD002E1DDB002A14D0104B8468D3189B00E158E8589D
S2240065408842E4D3043B884206D910E0E058E958043B8842DBD80AD3013A002AF6D1002679
S224006560D5E74C68002CBED10668D0E701267642CDE70126CBE7C046FFFFFF3F0123F0B54F
S224006580CC179C434268CB17CE1801345E40002A10D0194B8568D3189B00EF58002F0ED1B9
S2240065A0043BEB1802E05F68002F08D1013A043B002AF8D10020002900D06042F0BD3300DB
S2240065C0591E8B419A4201D90068F7E79A42F4D30068002801DD631C0CD0012C01D10028E4
S2240065E005DB2B689E42E9D302D80020E6E701204042E3E70120E1E7FFFFFF3FF0B5050084
S22400660083B00E001400904206D0884203D0FFF78FFB002819D12600012374682B60002C6C
S22400662010D0474AB368A2189200995800290ED1043A9B1802E05A68002A08D1013C043B70
S224006640002CF8D106F07EFA002003B0F0BD06F079FA3C4B9C4270D86B68A34269D2042124
S224006660200005F085FA0190002866D0A96800290BD06A68920007F01CFB6968A8688900A1
S22400668005F082F9A868FCF77BFB019B6C601800AB60B368002100260093009F036804CFAF
S2240066A0F31800979F18BC46B342B64194459241764252420131961980C0A142EDD1A30031
S2240066C09C46019A00936244002E0AD1BCE713680099F318043100913C0008C2B342B3D2EE
S2240066E001266B68671CA342F1D806F02BFA154B9F4222D86B68BB4203D3AC68009BE218C5
S224006700E5E70421380005F033FA041E15D0A96800290BD06A68920007F0CBFA6968A8680C
S224006720890005F031F9A868FCF72AFB6F60AC60E4E7AB6801931800ABE71020404284E770
S224006740FFFFFF3F10270000F0B54B6885B00D0006001400002B12D08A6853495918890078
S2240067605058002800D072E00439521803E05168002900D06BE0013B043A002BF7D1616865
S2240067800023002912D0484AA0688A1892008758043A8218002F03D03CE05768002F39D12B
S2240067A00139043A0029F8D1002B33D100230122029301920393B44200D16AE0B54205D05A
