S00E00006163636573732E73726563A4
S22400000000F0FF1F2D010000F5000000D70000000987000009870000098700000987000093
S224000020098700000987000009870000F50000000987000009870000F50000007D7900000B
S224000040F5000000F5000000F5000000F500000009870000F5000000F5000000F500000058
S224000060F5000000F5000000F5000000F500000071CC0000F1820000F5000000F50000000D
S224000080F5000000F5000000F5000000F5000000F5000000F500000069790000F5000000C6
S2240000A005890000F5000000F5000000F5000000F50000000987000081840000958400002B
S2240000C03C80010080F0FF1F0C0000008CF0FF1FB015000001BE19498D4509D306990A8865
S2240000E0174B9A4204D10231069120210091704714480047004B1847098700000648074A19
S22400010010B5121A064910F0FAFF0648064A0021121A10F0FCFF10BD80F0FF1F8CF0FF1FC6
S2240001203C8001008CF0FF1F3C06002000E000BFFFF7E4FF10F0EFFF00BE000000E0FF1FDF
S224000140ABBE000009870000FFFFFFFFFFFFFFFFFFFFFFFFFFFFFFFFFFFFFFFFFFFFFFFFB9
S224000160FFFFFFFFFFFFFFFFFFFFFFFFFFFFFFFFFFFFFFFFFFFFFFFFFFFFFFFFFFFFFFFF9A
S224000180FFFFFFFFFFFFFFFFFFFFFFFFFFFFFFFFFFFFFFFFFFFFFFFFFFFFFFFFFFFFFFFF7A
S2240001A0FFFFFFFFFFFFFFFFFFFFFFFFFFFFFFFFFFFFFFFFFFFFFFFFFFFFFFFFFFFFFFFF5A
S2240001C0FFFFFFFFFFFFFFFFFFFFFFFFFFFFFFFFFFFFFFFFFFFFFFFFFFFFFFFFFFFFFFFF3A
S2240001E0FFFFFFFFFFFFFFFFFFFFFFFFFFFFFFFFFFFFFFFFFFFFFFFFFFFFFFFFFFFFFFFF1A
S224000200FFFFFFFFFFFFFFFFFFFFFFFFFFFFFFFFFFFFFFFFFFFFFFFFFFFFFFFFFFFFFFFFF9
S224000220FFFFFFFFFFFFFFFFFFFFFFFFFFFFFFFFFFFFFFFFFFFFFFFFFFFFFFFFFFFFFFFFD9
S224000240FFFFFFFFFFFFFFFFFFFFFFFFFFFFFFFFFFFFFFFFFFFFFFFFFFFFFFFFFFFFFFFFB9
S224000260FFFFFFFFFFFFFFFFFFFFFFFFFFFFFFFFFFFFFFFFFFFFFFFFFFFFFFFFFFFFFFFF99
S224000280FFFFFFFFFFFFFFFFFFFFFFFFFFFFFFFFFFFFFFFFFFFFFFFFFFFFFFFFFFFFFFFF79
S2240002A0FFFFFFFFFFFFFFFFFFFFFFFFFFFFFFFFFFFFFFFFFFFFFFFFFFFFFFFFFFFFFFFF59
S2240002C0FFFFFFFFFFFFFFFFFFFFFFFFFFFFFFFFFFFFFFFFFFFFFFFFFFFFFFFFFFFFFFFF39
S2240002E0FFFFFFFFFFFFFFFFFFFFFFFFFFFFFFFFFFFFFFFFFFFFFFFFFFFFFFFFFFFFFFFF19
S224000300FFFFFFFFFFFFFFFFFFFFFFFFFFFFFFFFFFFFFFFFFFFFFFFFFFFFFFFFFFFFFFFFF8
S224000320FFFFFFFFFFFFFFFFFFFFFFFFFFFFFFFFFFFFFFFFFFFFFFFFFFFFFFFFFFFFFFFFD8
S224000340FFFFFFFFFFFFFFFFFFFFFFFFFFFFFFFFFFFFFFFFFFFFFFFFFFFFFFFFFFFFFFFFB8
S224000360FFFFFFFFFFFFFFFFFFFFFFFFFFFFFFFFFFFFFFFFFFFFFFFFFFFFFFFFFFFFFFFF98
S224000380FFFFFFFFFFFFFFFFFFFFFFFFFFFFFFFFFFFFFFFFFFFFFFFFFFFFFFFFFFFFFFFF78
S2240003A0FFFFFFFFFFFFFFFFFFFFFFFFFFFFFFFFFFFFFFFFFFFFFFFFFFFFFFFFFFFFFFFF58
S2240003C0FFFFFFFFFFFFFFFFFFFFFFFFFFFFFFFFFFFFFFFFFFFFFFFFFFFFFFFFFFFFFFFF38
S2240003E0FFFFFFFFFFFFFFFFFFFFFFFFFFFFFFFFFFFFFFFFFFFFFFFFFFFFFFFFFFFFFFFF18
S224000400FFFFFFFFFFFFFFFFFFFFFFFFFEFFFFFF4B4C32360000C046FFFFFFFFFFFFFFFFEB
S224000420436A9E46036A9D46C3699B4683699A464369994603699846C768866845680468F2
S224000440080000D101207047C046C046CB080722C01801238A439340027813430370704748
S224000460F8B50F002021CB1ADBB29A40040015000026069B9E4204DBD843C0171840C0196C
S224000480F8BD002D03DAF1192000FFF7DFFF6D000136EEE7064AFA23916C002900D1D36C7E
S2240004A004485A1E0449824200D80B60086870478CF0FF1F8613000080F0FF1FF0B5264B21
S2240004C089B0DA6D9C6D04921A6E403305925A6A002703929A6A0192DA6A029203221B78BF
S2240004E09C46019B5A431E236343D3180093049BA34226DA002F03D06246174B40331A70EA
S224000500012009B0F0BD112815D0132817D0102800D1117001360332029BB342F3DA013584
S224000520039BAB4213DB0F226A43079B019E9A18CBB20693F0E7069FBC460127EAE79170DE
S224000540E8E7064A009B059D9B180793E8E7009B01341E330093CAE78CF0FF1FE4F1FF1F2C
S224000560F8B5002406000F00150020001470B44200D1F8BD002C04D0064A202128000FF0A3
S224000580F2F9A300FA58202128000FF0ECF90134EDE7C0465B5F0100074B10B570331B7812
S2240005A00C00002B06D00100044806F0FFFD20000FF045FA10BDC0468CF0FF1FD65C0100EC
S2240005C030B52F4D93B02B0071331C782D4A0234230018210CA870350FF0F3F92B78002BF4
S2240005E01ED00CAA2849294806F0E0FD07F03CFA052807D0FA2080000FF021FA0CA9244897
S22400060006F0D4FD152302220121224806F0CEFD2148012106F0CAFDFA20C0000FF00FFA3B
S22400062021001E480FF000F907F01EFA01001C480FF0FAF81523022201211A480FF0F4F806
S224000640012119480FF0F0F818480FF0EDF818480FF0EAF817480FF0E7F806A806F0C2FB08
S2240006600B9B089A02930A9B07990193099B124805930093069B0FF0D7F813B030BDC04671
S2240006808CF0FF1F125D0100DA5C0100E55C0100D65C0100EC5C0100F65C0100FB5C0100AB
S2240006A0245D0100ED5C0100355D01003D5D0100555D01007A5D0100B65D01000E4B70B51E
S2240006C01D686424C72D02DCEC0F6419641000280FD083200FF05CFC200007F007F983208F
S2240006E00FF061FC82200FF05EFC280007F0FEF870BD8220EEE7C04680F0FF1FF8B50400A0
S22400070080202649C0000DF08CFE254BDB68012B1BD0002B02D0022B27D0F8BD0723402252
S224000720803CE4B2144201D0803CE4B2013B5208002BF7D1082580263000013D2040FFF7C9
S224000740BDFF7608002DF7D1E7E70B27232C01D0303CE7B2042508263000013D3840FFF70D
S224000760ADFF7608002DF7D1D7E70B22232C04D0013A2A2C01D0303CE2B21401E4430F2377
S224000780082580269C431443E4B23000013D2040FFF794FF7608002DF7D1BEE7E25D010006
S2240007A08CF0FF1F10B504000134631E1878002800D110BDFFF7A2FF64200FF040F9F3E798
S2240007C010B504000EF0C9FA222C67D8200010F095FD12652837584141414158656565652D
S2240007E065656565656565656565656565655C6265515B5B5100962328226421052005F051
S2240008008BFC962328223221052005F08BFC962328220021052005F08FFCE122244B920088
S22400082026E09623192200210A2005F075FC9623192200210A2005F075FC1D4B1D4A17E09D
S2240008409623192200210A2005F066FC962319224B21EFE77D23192200210A2005F05CFC54
S2240008607D2319223E210A2005F05CFC104B124A5A6709E09623192200210A2005F05CFCD5
S224000880E4E7192005F030FC10BD05F0F9FBFA22074BD200ECE705F0CBFBF8E77D231922F0
S2240008A000210A2005F038FC014BC822B7E7C0468CF0FF1F720600002D050000F8B50400F0
S2240008C00FF047FA8020344FE300DA59334940000DF0A7FD324E6500330070331B78002BC4
S2240008E01BD00135AD000021E859FFF755FE032C2CD016DC002C19D00425022C15D1FA26EB
S22400090021347600210030000CF0B0FF013D20000FF095F8002DF5D107E02000FFF750FFE2
S224000920E5E7042C2ED01F2C1ED0F8BD0FF031FA0028FAD1C824AF25A400ED0020002321F8
S22400094032340CF093FFAC42F8D1EEE7FA2623257600290030000CF089FF013C28000FF0F3
S2240009606EF8002CF5D1E0E7FA20642140000CF07DFF64200FF063F8C820642140000CF075
S22400098075FFD2E7336A002BCFD107F05DF996203221C000F3E7C046CC250100E85C010090
S2240009A08CF0FF1F10B506F0F1FF034A936F9067C31A180010BDC0468CF0FF1FF8B50EF09A
S2240009C0E6F9974E0500F36F5A1CF267954A934201D907F031FB944C2368013B2360002B12
S2240009E002D102200FF0DFFA2779032F0CD08F4BE380052F1DD8380010F088FCF0001B004A
S224000A00E7001B009200C3003669022E36D0052E00D1B4E0002E0CD1A368013BA360002B8D
S224000A200DDC05F005FB824B2661E360676105232371236A002B01DD013B2362F8BD002D7F
S224000A4008D105F01DFB7A4B2561E36002236361DB18EDE7012D0DD1A3695A1CA261754A1D
S224000A609342E6DD05F0E4FA714B2661E3606761A661DCE76B1CDCD1A661DAE7A368013BAB
S224000A80A360002B08DC05F0D3FA694B6761E3600023236105332371E388644A934219D86C
S224000AA00133E3800326644A354093889B001D43ADB295800A2D0FD0604B9D4221D0002D06
S224000AC0B7D15C4BE2889A42B3D905F0D9FA05F0B9FAB8E7E280E5E7564BE2889A420DD807
S224000AE005F0A6FA05F0D6FA05F0C0FA504B6661E36000232361A361053323710023E38046
S224000B0097E74C4BE2889A42F8D805F091FA05F0C1FA474B6661E36000232361A361EDE75A
S224000B202069C821431C236110F05BFB00290CD1336A002B09D063695A1E6261002B04DD4B
S224000B4096206431C00002F047FF3369002B09D0022B00D06DE7E368013BE360002B00DD8A
S224000B6067E707E0E368013BE360002B02DD002D00D15EE705F08EFA06F008FFE061062340
S224000B8056E72069C821431C236110F02AFB00290CD1336A002B09D063695A1E6261002BC0
S224000BA004DDDC206431400002F016FF3369002B02D0022B00D03CE7E368013BE360002BC9
S224000BC000DD36E705F03EFAD6E7736F013B7367002B00DD2DE70EF0C0F8CDE7032216492A
S224000BE02A408B889B0013438B807369012B00D01FE7002D09D0012D0CD06B1C00D018E733
S224000C0005F048FA05F01EFA13E705F01BFA05F037FA0EE705F03EFA05F00AFA09E7C04650
S224000C208CF0FF1F60EA00000CF1FF1FEE020000B80B0000ED02000080F0FF1FA0AA000036
S224000C4010B50024064B71331B78A34202D00EF0B7F804000EF0AFF864000130001910BD96
S224000C608CF0FF1F70B50500040028000CF080FD631B984201D8012070BD23780134303B4C
S224000C80092BF2D90020F7E70FB407B504A901C901910EF0D5FD03B008BC04B018470A4A1C
S224000CA013B5830000018158DC1C981C0133A4009B00A4589B5880000093825801940B006F
S224000CC00248FFF7E1FF13BDB8230100F55D0100F7B50500112833D0132835D02348102D1B
S224000CE02FD0002622480096FFF7CEFF21480EF09BFD0027204ABB00995820480EF094FDD4
S224000D001E221F4B7A43DC1C0F339B19A4199B18A4180193112D1DD0132D1FD0102D03D14E
S224000D20217818480EF080FD019B03349C42F1D10137062FDED1009B0F36012B06D1F7BD14
S224000D401148FFF7A1FFCCE71048FAE7012310480093C9E70F4B40331978E2E7A378064A62
S224000D60DB00D318596A0C48DCE7C0460C5E0100365E0100535E0100A01501006F5E010092
S224000D80E4F1FF1F755E01001E5E01002A5E0100445E01008CF0FF1F7D5E0100FA2010B589
S224000DA02321400002F018FE192005F08DF905F0C7F8C0B2FFF7A2FC10BD70B5002305001A
S224000DC00E001400236023689B0058590CF0D0FC002808D123689B0058590CF0C9FC431ED0
S224000DE09841C0B270BD236831009B00585910F0B3F90028EED023680133E3E70022F0B58C
S224000E0001240600244B85B09A661A669A650532DA65013A01915C66DA66019B9C4202DDE1
S224000E20012005B0F0BDA7001C49F05910F094F9002806D10222184B9A650132DA6501341C
S224000E40EBE7174D03AAF1592800FFF7B6FF002804D0039A104BDA659A65F0E7280003AAAF
S224000E604830F159FFF7A9FF039B5B100393002803D0094A53661366E1E7280003AA5C30C5
S224000E80F159FFF79AFF039B5B1003930028C8D0014AD3669366D2E78CF0FF1F835E010063
S224000EA0A0150100F7B50600170001913478002C19D030000CF05CFC441C341920000CF00E
S224000EC057FC451C651928000CF052FC01302B18300000930CF012FC019B009E9842E5D15E
S224000EE0002F00D03D602000FEBD70B50A0004000D0001000548FFF7D5FF002804D12A00F7
S224000F0021000348FFF7CEFF70BDC04698F2FF1F9E1F010013B501A90400FFF7E6FF0300B0
S224000F200020834205D0019A210002480EF07CFC012016BD875E0100F0B515008DB00B009A
S224000F4004AC294A0621060002A80EF03AFD2A00202120000EF0EFFC2178244810F015F9D6
S224000F600125002301900127200000936D4220490CF054FC041E06D1019B002B18D1009B0F
S224000F80002B15D113E01B49200010F0E5F8002826D01949200010F0DFF8002822D0002D29
S224000FA001DBB5420FD1002312E02A2A02D101200DB0F0BD02A9C95C3F2A06D1002906D1A2
S224000FC0AE4200D100970020D1E78A42F8D10133E25C002AE9D102AAD35C002BF0D1E6E75D
S224000FE03D00EDE70225EBE7985E01009D5E01005B5F0100AA5E0100AE5E0100030010B556
S22400100008001100002B03DD022B04DD042B05D00120404201E00DF035FE10BD02F0F4FF2F
S224001020FBE7F7B5040008000E000192250004F0F1FC0C35071E0FD101980DF059FE00280F
S2240010400AD00323019A236020210D3328000EF01EFCA7606060F7BD022332002360202116
S224001060173328000EF013FC00236060A360F2E7F0B50125B74C0822A5440A90002112A8D7
S22400108010F045F89C2200216CA810F040F89C22002145A810F03BF8E8220021BAA810F057
S2240010A036F8AD4C25710DF058FE80200A9BAB499A00AB4B40009B189A680DF0B2F90A9B10
S2240010C0002B00D0FCE02020FFF7F8FB0A9B079306F05CFC2065FFF765FCA24DEB69002B34
S2240010E000D1F4E006938020069B9F4EDB00F3189E494000DA6D0DF094F931A90A9806F02F
S224001100C7F9002801DA01F08AF8FFF74BFC0A9B60650627022B0AD004F0E0FD070003F0EE
S2240011204BF9002800D0D6E07B1E9F4101378020BB00F2588E4940000DF073F9FFF732FCBE
S2240011400222069BA065023B934300D0EFE02B0040331B780B93002B2CD1AB6C002B00D005
S224001160DEE0844D002238001100FFF747FF012801D101F05AF8002801DA01F05CF8280086
S2240011800021FFF709FA636A0820032B0AD00020042B07D12000784932300EF035FC431E39
S2240011A09841C00001900095744B082204211CA805F0C0FAFFF7F6FB002303220F21E36543
S2240011C00798069B414353435B181E2179435B186B49CB189E78002E00D1B7E0012E00D18C
S2240011E0B2E0022E00D0A6E0664B6748029305F0ADF80490002801D101F023F8624805F00A
S224001200A5F80590002801D101F01DF804995E4A02980CF01CFC0C25011E6FD014AB7022C4
S22400122004980CF020FC059A574B1599149803F049FB0135021E61D005996CA803F052FAAB
S224001240002801D001F002F8069B033B0893FFF7A9FB414B1866089B012B15D8414B9B6C38
S224001260002B11D012A9494803F0B2F8139A129993A80CF07EFC45A993A80CF09EFC0B257C
S22400128000283BD1FFF78EFB0B9B002B00D0F8E011A805F077FA041E00DAF0E02E4B5B6AF4
S2240012A0032B79D0042B00D1D3E0119A1CA93800FFF7A4FE002801D000F0CEFF0F906FE01B
S2240012C02120FFF7FBFA04F0C7FE079500E7FFF7B7FC069007E702F0EBFD00281ED002F092
S2240012E061FF00281AD093A806F056F90527002800DD1CE700230325059304932800FFF72B
S224001300DDFA184B1A0070321278002A01D01E4A5A670222104B1A7100F017FF042706E7FC
S22400132003F04AF9002800D01BE7194D1AE701235B420B933EE70B9B591E8B415B42934331
S224001340144A9446634450E7124B4EE702960596049679E72CFCFFFF0CF1FF1FD15E010042
S224001360201601008CF0FF1FA0150100E35E0100F65E01002E770100F35D010088130000B8
S224001380E4F1FF1F01C15F00B80B000002C15F00B25E010005C15F002A2886D101230F93AA
S2240013A00920FFF78BFAFFF7FDFA0023C84CA366E3660F9B6066002B00D0B9E0002E37D0D5
S2240013C08020C44940000DF02CF81E2129A803F03BFE802184A8490003F0AAFEBE4B29AA31
S2240013E00193049B84A9009302981E2303F0C0F813250390002800DA80E7FFF7D3FA1E2238
S22400140029AB1693049BA0661893039B29A91993009384A8049B17920CF054FD013500282C
S22400142000D06BE71530FFF749FAFFF7BBFAE066089B012B7CD8A94804F088FF03900028CC
S22400144022D101256D422900A548FFF71DFC1A2554E793AD119B1CAA082128000EF017FA0E
S22400146003002A2C01D12C5401330022984993A83231C2540EF0C8FA00288FD115E7072561
S2240014803CE700230F938EE7944A002103980FF03EFE0399914A93480CF0D9FA011E00D104
S2240014A0A6E03AABBC2203980CF0DDFAF124002825D13B9A3A9993A803F03AFA8A4DAB6C45
S2240014C0002B77D100229699959802F0FDFB864B05009B6C002B00D081E00024A54218D000
S2240014E0824B11349D420AD0C6230D3CDB019D4205D0013BFF3BF9349D4200D1F53C802036
S2240015007B4940000CF08DFFFA217A484900FFF743F800230893089B2500C82B6AD1039894
S22400152004F058FF042C01D100F093FE002C8AD1FFF738FA664B1867062F6BD1052320211F
S224001540D2A83A9306F062F8D190C0A9E9A80DF03DFBFFF727FA5E4B5867BA9B002B00D090
S22400156080E1042E00D098E11AA96CA803F074F9614A624993A803F0B5F81FA993A803F02C
S22400158081F91FA91AA80CF0CCF9002800D17DE15B4A5C4993A803F0A5F81FA993A803F01F
S2240015A071F91FA91AA80CF0BCF9002800D16DE11425A3E645A993A80CF00DFBAB6C040030
S2240015C0002B07D0504A002800D0504A50495148FFF75AFB002C00D174E714248FE74A4AC1
S2240015E0002800D0494A4C494A48FFF74DFB74E7F02484E7089B494A9A181378A34206D1ED
S224001600802023005268464940000CF00AFF089B08337FE77B1E012B00D9D3E0002E00D1E0
S22400162084E0BAAAC0A96CA80DF04EFB3D490EABC9186CA80CF079FA3B4C93AB210000226F
S22400164014316CA803F0E6F82100051E21D193AB02001C316CA803F0DDF82A00290093A82E
S2240016600EF09CFA93A80CF094F9949BD190939A2021D2A80EF00BF90426D19B002B00DCF6
S22400168098E005233A933A9B032B00D05DE71F005BE7243193AB00226CA803F0BBF8011ED2
S2240016A0EBD1020093A80EF079FA072193980DF06DFD939B04000721D81D0DF067FD1A2314
S2240016C021040143C901D2A8D1930CF018FBD3E70CF1FF1F055F0100B80B0000881300004D
S2240016E0685F010003C15F008CF0FF1F826A0000435F01004F5F010086040000181B010064
S2240017008303000095170100C25E0100BD5E01000C5F0100295F0100315F0100F0220100BB
S2240017205D5F0100EB02000020160100702293A9C2480CF08CF9040023AB0100352293A805
S2240017400CF091F9249A2399BAA80CF033FE23AB3022210093A80CF086F9C0AA249923981C
S2240017600DF02FFA23AB3422210093A80CF07BF9B3480EAB249A2399C01804F03DFB23AB4E
S2240017804122210093A80CF06EF9249B0393002B09DD23A80CF0FDF8249BD190239A2021E2
S2240017A0D2A80EF074F823AB4022210093A80CF05AF962E7A24A0EABD218C0A93AA8FFF74C
S2240017C030FC60E7042F31D1079B002B14D19C4B0EA95B18BAAA1900C0A802F0C3FB1625C9
S2240017E0002800D08AE5964B0EAA9B181A00C0A93AA8FFF716FCA8E69248182200212430AD
S2240018000EF0EAF8002825D18D4B0EA95B18BAAA1900C0A802F040FD002821D1884B0EAA0A
S2240018209B181A00C0A93AA8FFF7FBFB052F00D08BE60423CEA83A9305F0AEFECD90042896
S22400184000D082E6CEA80CF021FA0100CEA80CF074FA7AE602F078FC0028D5D00A254DE5E9
S2240018600527DBE7802078490093BB9ABC9B40000CF0D7FD23A805F0B5FA23A9BAA80CF02C
S224001880C3FD002800DB6CE6122537E5ABA96CA80CF042F9002800D08AE6FFF783F86B4CAC
S2240018A0A0670DF05AFA0420FFF708F823000833DB6F002B08DC3A9B581E042877D80FF035
S2240018C01DFD386A919AA20088342268002A03D00123BB401A4228D05C4A13007C331B7CC5
S2240018E0002B1BD1594AAC321378002B05D0EA993800FFF721FB002817D055480DF094FFB7
S224001900524A13000833D96FFA239B004B431360002BD0DD02200EF03BFBCCE78C32E999B6
S2240019203800FFF709FB0028DCD12220FEF7C6FFC1E748480DF078FF47480EAB0221C018B0
S2240019400DF040FF02242D200DF05AFF424B0EAA9B181819022102340DF034FF0A2CF2D1D2
S22400196000230393FFF71EF8039B002B21D04E2103980FF00AFC002800D186E07B1E012BB0
S2240019807CD835480EAB0A21C01804F0D9F900287BD01725B2E431480DF046FF0121C0A865
S2240019A004F05CF81922C0A92D4803F047FFFEF7F9FF0323069A079953430F224A439B182E
S2240019C01E227A439B18274A985C00230393984200D181E01900FFF788FA03900028C6D145
S2240019E01B258BE420480DF01FFF15480EABC0180DF08BF9DBE71D480DF016FFCD99CEA82C
S224001A000DF0E0FED3E7D1991A290BD1D2A80CF03DF9C209C00DC1B292B215480DF004FF4B
S224001A20144B9EE714480DF0FFFED19AD2A90732D210002003F0E2FEF2E7C04602C15F0072
S224001A40EB0200008CF0FF1F775F01000CF1FF1F975F0100AA5F0100E1020000B15F010013
S224001A60BA5F0100E4F1FF1FC25F0100CA5F0100D15F0100C75E0100DE5F0100079B002BA6
S224001A8000D093E0042F00D18AE0682103980FF07CFB002800D09AE0482103980FF075FB11
S224001AA0002819D01B25002E00D127E41423DCAA6D996C98E8930CF0CDF9B34B0299B34A2C
S224001AC0994204D0B24BB34A994200D0B24A8020B24940000CF0A5FC849BDAA8302B00D06D
S224001AE091E0020087AB12CB12C20BF052FF702103980FF04AFB002806D08020DB9BDA9A47
S224001B00A74940000CF0AAFC039B002B00D196E13022002193A81A930FF0F9FA0322A14981
S224001B201A980BF051FE0990002800D0B5E2FA25EA9EEB9B0A21AD0030005D4364240FF020
S224001B4050FB0A21E99BEC9A5C434A432D183000A4180FF046FB142362180093012193A8C2
S224001B60ED9FFEF77DFC2023010000932A0093A8FEF776FC0423010000933A0093A8FEF79E
S224001B806FFC1A9B3A2703331A9339230C93002308931C330E93383B0D93002302930DE17A
S224001BA081480EABC0180BF04BFFF0E6042F05D17D480EABC01802F065FBE8E6052F00D028
S224001BC063E779480EABC01805F0E6FCDFE61B25002E01D1FFF792FB2023DCAA8399829806
S224001BE0E8930CF03CF9684B0299684A994204D0674B694A994200D1664A80206B49400030
S224001C000CF00FFC48E7082286A90FF078FA6EE7581C1A901E78622E00D144E2642E00D1CC
S224001C2044E2722E00D143E25A783A2A27D1981C303A1AA90BF0DAFC01235B420690079312
S224001C408023FF33652E01D06F2E2AD17A1C9A4200D9C5E64F2E00D1F4E161D8442E00D119
S224001C60F4E132D8402E00D10DE31DD8202E00D1A4E0212E00D103E300240425ACE10A22AD
S224001C801AA90BF0B3FC07901A98079A037806923A2BD5D101300A221AA90BF0A7FC069076
S224001CA0CEE7069AD219D2E7412E00D1C2E1EB9B432EE1D10293089B002B00D093E1079B51
S224001CC0002B23DA089C042581E1472E00D1DCE20CD8452E00D1B7E1C0AC1925462ECBD12A
S224001CE0079B002B00DA72E10026CBE1492E00D1A4E142D32C4C0EABE4180A254E2EBBD1CD
S224001D00079B002B00DA62E1002CEDD1069B39000093029A079B93A8FEF7A2FB07004DE03E
S224001D20572E00D14FE114D8532E00D184E105D8502E25D0EC9B522EBCD09DE7542E00D1BB
S224001D407EE1552E98D1CD9DCEACEB0007930693C6E7652E2ED007D8582E00D17FE1592ED6
S224001D608AD1134B9B69A5E76F2E00D126E1702E00D12FE1682E00D07EE7E89DDCACAFE7B3
S224001D80EEAC0525ACE7C04605C15F00C95E010001C15F00CD5E0100117801000560010057
S224001DA02060010026600100E1020000E85F01008CF0FF1F069B0C970D9301371A9B1A78EE
S224001DC0002A00D024E70C9B002B15DB0D9A0133002A03DA0C9B9B1852420D92002107247C
S224001DE001250D9AD018834200D063E1002903D00C9993A8FEF72AFB099B002B15DB0E9AF3
S224001E000133002A03DA099B9B1852420E920021072401250E9AD018834200D057E10029FF
S224001E2003D1099993A8FEF711FB8020D549C0000CF0F7FA00240726A74200DD54E10F9B8A
S224001E40002B0CD0D048FEF71FFFD04B18005A6A3230032A01D03C331800FEF7A3FCFEF7E4
S224001E60A1FDCB4DE86405F091FD28658020C74CC849626D80000CF0D4FA8020A26DC649B0
S224001E8080000CF0CEFA8020626EC44980000CF0C8FA8020E26DC24980000CF0C2FA80206C
S224001EA0226EC04980000CF0BCFA8020A26EBE4980000CF0B6FA8020E26EBC4980000CF0FE
S224001EC0B0FA8020A26FBA4980000CF0AAFA8020226FB84980000CF0A4FA8020626FB649C3
S224001EE080000CF09EFA8020EA6CB44980000CF098FA8020B24980000CF093FA80202B6DEC
S224001F00226DB0499A1A80000CF08BFA80202B6D226DAD499A1A636E8000D21A0CF081FA5A
S224001F2005F034FD039B6865002B00D0F9E0063300252371954C2379032B00D18FE105F064
S224001F4025FD002D07D1924BA0495A6D821A802080000CF066FA2379042B02D11C20FEF7E1
S224001F60ADFC2379052B02D11D20FEF7A7FC049804F030FA059804F02DFA12A80BF0F0FC2C
S224001F802379062B00D06DE10A980DF0C8FA011E00D067E120718E48FEF7FEFA80200A9B20
S224001FA08C499A008C4B40009B189A680CF039FA05F0A2FAF5239B009D44F0BD069B09979F
S224001FC00E930137FAE62025D19BD2AC0693EB00079399E6DA9CDB9D089B002B00D18FE675
S224001FE0002C00D07CE610221FA902980DF0F1F8089B1FAC022B00D04AE1002544260EAB26
S22400200010AC9B19585D21000DF007F9207802F00DFD2070607802F009FD0100607020781B
S2240020200DF0F5F80EAB9B1958550135102DE5D11FAC55E6E99B3DE6EA9B3BE6ED9B39E674
S224002040F09B37E6F19B35E6F29B33E66422BA9BBB9953435B185343BC9A9B182AE6F39B11
S22400206028E6079B6A1E013B9B1BD808121A0720A25C03401A4101231A4202D093A8FEF7E0
S224002080E5F90136069BB9199E42EADB069B069ADB43DB171340FF1890E601235B42099380
S2240020A00C93002773E50023089387E60123FBE70223F9E7DA08F4AEB2182600853AFF3A5B
S2240020C012789E4332412A40514001338BE6DA08F4AEB2182600853AFF3A12789E43324133
S2240020E02A405140013397E6344204D180202E21C0000CF0A9F9F4AAE308D318853BFF3B29
S2240021001D783300A3431D4101231D402800FEF7D5FA8020314BC000595D0CF095F90134F0
S2240021208AE60B9B012B5DD100262D4D023300202371A56003F0BAFC03F014FF02952379BA
S224002140032B0AD003F092FF0025104B1B79022B00D0EFE605F078FDF7E703F0FBFE0028AC
S2240021600DD003F0EDFE771C31003E00C5B2280003F0CAFC2800FEF7C1FA029BA36005F0D8
S22400218063FDDCE72A600100356001000CF1FF1F8CF1FF1F3D60010051600100656001002A
S2240021A0796001008D600100A1600100B5600100C9600100DD600100F16001000561010019
S2240021C019610100276101003B6101004F6101007061010089610100201601009A610100B8
S2240021E0881300000B9B022B15D12A4B1CAE00930822294B042130000CF06AFF0725002808
S22400220001DAFFF77BF8002333543000FEF7CAFA2320FEF773FA214BA360032388E6002317
S224002220022505930493FFF769F80023052505930493FFF763F80023062505930493FFF7AC
S2240022405DF8049B05930125FFF758F80E25FFF755F81925FFF752F80825FFF74FF805F02E
S224002260F3FC67E60E4B41331B78002B05D003F071FE002801D0FEF791FD05F0E5FC7FE6A4
S22400228001235B4216E5002314E5064C0EABE418102525E52E77010088130000B80B000017
S2240022A08CF0FF1FEB020000FC2070B550251149114B124C0B60124B582280024B60E5670D
S2240022C00DF096FD21002C2224310E480DF090FDB4220D490D480DF08BFD80220C491201B5
S2240022E00C480DF085FD21002A007C310A480DF07FFD70BD8CF0FF1F737265760CF1FF1FA1
S2240023000115020158F00300E4F1FF1F84F0030098F2FF1F38F1030038F9030037B51A4C90
S2240023205822002120000EF0F2FE184D2C222800002124300EF0EBFEB422002114480EF067
S224002340E6FE80220021120112480EF0E0FE2800502200217C300EF0DAFE5023EB67B8339B
S224002360E363230001224133694601A81A700BF080FD2300019A52331A80009B543423805B
S22400238000E000BF37BDC0468CF0FF1F0CF1FF1FE4F1FF1F98F2FF1FF7B50DF0D6FC0221B1
S2240023A001200DF0E9FDFA2080000DF048FB05F051FE05F057FE0020FEF780FA0020FEF708
S2240023C0FFF901F01BFC4F4D434258412C007134207004F08BFF2B004242504170331870F4
S2240023E02378002B02D048480DF01EFAFEF7E8F82B0070331B78002B03D0FA2080000DF0D0
S2240024001EFBFC24A402FFF789FF404B22689A4242D0D824A402226801279A423DD0FFF724
S2240024207DFFFFF741FF3A480DF0FEF92C00E86B243403F063FA1822002120000DF0CCFA0A
S22400244000285CD101F07AFE324802F0EDFDFEF721F82B005233188802F022FB2B00543344
S2240024601888503502F02CFB2B88DB0702D5002002F0F0FA00212848FEF78EF80021274815
S22400248004F08CFF0DF03BF8002102200DF09FFD23480DF0CFFAF7BD0027210058222800DD
S2240024A00EF02DFE1F4E2100300058312C2224300EF025FE2100B42284311B480EF01FFEBA
S2240024C0210080223931FF31120118480EF017FE174B0422E418210001A80EF010FE019B1E
S2240024E0502B01D9502301933000019A7C3021000EF005FE002F99D0FFF7D6FE96E72000E3
S224002500A0E7C0468CF0FF1F9D61010073726576AF610100002C010070610100CE61010090
S224002520BD0900000CF1FF1FE4F1FF1F98F2FF1F38090000F0B5050007388BB00C000C2875
S22400254011D80EF0DBFE07101010121A222A365454325400674B6848DA69684BD2009B18C6
S224002560D96DFEF791FB0BB0F0BD624B6448DA68644BD2009B18D96AF3E75E4B62481A6965
S224002580604BD2009B18996CEBE75A4B5F485A695C4BD2009B18D96FE3E7564B5C481A6A19
S2240025A05C4BD2009B189969DBE7524B5A489969D7E748680BF0A2F85849050060680EF076
S2240025C0CBFD041E09D156480DF02EF920000134FEF7A0FC642CF9D1C5E72800FEF79AFCD1
S2240025E00028C0D129004F480DF01EF9BBE711002000FEF703FC00287AD03E4B0026D96D1B
S2240026009A6D0691196E40330291596A029C0591996A0391D96A049103211B780190079342
S224002620039B59430F236343C9181E23340053430231CB183C495B180093069B934233DA73
S224002640112D3FD0132D49D0102D00D08BE709A92000FEF74AFC00282AD13448FEF714FBA0
S22400266081E7049F3B00039FBB420CDB079F112D03D0132D12D08F1E3F78019B002B0FD1A5
S224002680A74200D0060001230F319C44059B6345E7DA009B01321E330093CEE70F78ECE768
S2240026A000233C000193EEE7029B00999C46EDE71F4A002E00D11F4A099B21001E48FEF770
S2240026C0E3FA50E7134BE4001C19E16A184A002E00D1184A1948FEF7D7FA44E7074BE400D4
S2240026E01C19216A124A002E00D1124A1448F2E71448B3E78CF0FF1FD6610100A0150100AB
S224002700E861010020160100F56101000262010010620100A01601001D6201002F6201003B
S2240027203362010049620100E4F1FF1F5D620100D4610100B47D010074620100906201006D
S2240027409F620100B5620100F0B5C3B0FFF724FE05F07AFA0023B44CE36703F0C7FB2E2849
S22400276009D102236569636103F0C0FB2E2841D00CF0F3FA65616369002B0ED105F006F935
S224002780AA4D0400EB69984203D3A94AC31A934203D90A2003F088FCEC61242200210EA8A9
S2240027A00EF0B5FC04F00AFE051E00D192E00A200CF0F5FF002304937C2128000EF0E5FC8B
S2240027C00890031E03D000220133027008933B2128000EF0DAFC002805D03B2128000EF02E
S2240027E0D4FC002303702B0000269248092E3FDC904C07E003F01CFC03F02EFC03F040FCD7
S224002800B2E7013301271A78A118803109783940F7D1002A2CD0272A01D0222A19D101334E
S2240028200136B10042AC6118B0390B60002A13D11978002905D00124411880310978214240
S22400284014D01978002913D0002ACFD11A700133CCE70A00E4E70B001C78002CF1D0591CE1
S224002860A242F8D100241C700B00EAE70133DFE7B300B200069317AB9B1800221A60964239
S22400288028D06D48FEF700FA00276C4BBC00E4182368180005930AF06BFF002803D16848B6
S2240028A0FEF7F2F916E0059917980EF055FC002849D1059B17AC1793BB10771E0593BB009F
S2240028C06049185907930AF031FF002843D10598FEF7E5F9544C230041331B78002B05D09F
S2240028E003F038FB002801D0FEF758FA00200CF016FE002802D00020FEF7BAFBE069002808
S22400290001D1FEF79DF902230238984305D1230040331B78002B00D11AE7022250342388CC
S224002920134206D004F0D4FD002802D00220FEF79FFB01200CF0F3FD002800D108E70120E1
S224002940FEF796FB04E7616817980EF005FC0028AFD0043799E7059B202B3ED818000EF011
S224002960D5FC3600210047007B0084008A00AD0091003C003B014A014A0262027A02920299
S224002980A902B103FD032D04410468049F04A504E60429050E071F072507D4051F064306DF
S2240029A073069406254C256828000AF0E1FE002813D0A66830000AF0DBFE002805D03300B4
S2240029C0626829002048FEF75FF91034EBE7002F03D01E4960680EF0BFFB089D002D00D0A9
S2240029E0EAE6049B002B00D174E7FFF75DFC71E7002F02D1FDF7E4FDEFE763681B78562BD9
S224002A00F8D005D8302BE8D01148FEF73DF9E4E7622B02D0762BF7D1ECE70DF0BAF901005E
S224002A200C480CF001FFD8E78CF0FF1F0CF1FF1F88130000B97E0100285E0100B823010097
S224002A40E7620100A85E0100FD620100F7620100196301000B630100AB48FEF715F9642000
S224002A600CF0EDFF05F0E8FAB7E7FFF757FCFFF71BFCA648C9E7FC2252021100002004F069
S224002A8061F8AAE7012F01DD00F082FD10D1A0480DAA61685C30FEF790F90490002801D1E9
S224002AA000F076FD0D9AD30F9B189A4A5B10D3613A0021000720FFF73DFD8EE7002F1FD0AA
S224002AC0944B95496068DD6B0EF046FB00287ED0924960680EF040FB011E2AD1012F04D075
S224002AE01022A0680AF082FD050029008C48FEF7CBF8884B2800DD6302F000FF012304937D
S224002B000024844B8748DE6BFEF7BEF8A64261D0854D1C35A3005B59334206D0834BE2006C
S224002B205033D1588248FEF7AFF80134092CF1D153E7804960680EF00FFB002801D1002560
S224002B40D7E77D4960680EF007FB0028F7D00222616801260B782B3B9343DBB2002B19D0C1
S224002B60724C5034B30017A90DAA59582000FEF724F9002801D100F00BFD0D9A0136D30F4F
S224002B809B185B10684A9B00D318DB691D43B742E8DAAEE765485F4B01310DAA5030DE6BDD
S224002BA0FEF70BF9002801D100F0F2FC35000D9AD30F9B185B105C4A9B00D3186268DB6929
S224002BC012789D432B2A94D135001D4391E701256D428EE7594818E7012F00D0FDE6584951
S224002BE060680AF0A3FD002800D0F6E6FFF796FBFFF75AFBF1E6022F01DD00F0C9FC0EA877
S224002C0004F064F80123002F12D14E4A139B9446129A6344511C0E9A4B4802920F9A01923E
S224002C20109A05920092119AFEF72EF8D5E602230593059B17AA9B009D582F2128000EF017
S224002C40A4FA041E00D183E00023037028000AF08FFD431E012B49D82B004019984240D11A
S224002C6028000AF04BFD013812900B283EDC661C2F2130000EF089FA051E37D0002303707A
S224002C8030000AF075FD431E012B2FD82018A0422ED130000AF032FD119001381E2825D870
S224002CA06C1C20000AF064FD0222831E93431DD12B005A1B904221DC20000AF01FFD13903B
S224002CC0632803DD64210EF08CFA1391139B069364331393059B9F42A9DC0EA804F044F867
S224002CE093E71A780133303A092AB7D91748D7E563780134303B092BC9D9F7E75A78013312
S224002D00303A092AD5D9F1E72B63010038630100A01501008CF0FF1F2F62010057630100C3
S224002D205C6301007563010020170100A0160100617801006D630100706301007C630100A7
S224002D40307001006C0700009F630100826301003A2128000EF019FA061EC7D00470280086
S224002D600AF006FD431E012BC0D82B002818984239D128000AF0C2FC10901728B6DC751CFB
S224002D803A2128000EF001FA041E01D00023037028000AF0EDFC0228A8D17378303B092BF1
S224002DA0A4D8B378303B092BA0D828000AF0A6FC0F903B289ADC002C1BD0651C28000AF05A
S224002DC0D7FC022892D16378303B092B8ED8A378303B092B8AD828000AF090FC0E903B28E3
S224002DE000DC77E782E71A780133303A092ABED97CE70E946EE7012F00DDC9E30FD1C54831
S224002E000DAA61682C30FDF7D8FF0490002800D1BEE30D9AD30F9B18BF4A5B10D3603A00BB
S224002E2021000B2047E6012F00DDB1E30FD1B9480DAA61684830FDF7C0FF0490002800D15A
S224002E40A6E30D9AD30F9B18B34A5B1013613A0021000C202FE6012F00DD99E30FD1AD48D2
S224002E600DAA61687C30FDF7A8FF0490002800D18EE30D9AD30F9B18A74A5B1053613A0002
S224002E8021000D2017E6002F10D0A448079B0DAAE1581830FDF791FF0490002800D177E3A2
S224002EA00D9AD30F9B189C4A5B1013623A0021000E2000E67B1E022B00D969E39849606808
S224002EC00EF04AF9002811D1022F06D1A0680AF015FC914BD864012304932468FDF7DAFA60
S224002EE0210002008F48FDF7CFFE76E58E4960680EF032F9002800D1E1E06068FDF7B2FEC9
S224002F000A90002800D143E30A22002160680AF06DFB0300013B0990272B00D938E3012F2E
S224002F2000D1CCE0A368814E0693032F00D1E6687F4906980EF033F9051E01D07D48AFE46F
S224002F4006980AF015FC040030000AF011FC2418631D04937F2B01DD7748A1E422AC069BFA
S224002F60099A7649009620000CF086FC06980AF0FFFB2018C570A570714828180AF0F8FBBC
S224002F8000281ED104006B1C07936D4BE318180005930AF0EDFB00281ED10500694906983F
S224002FA00EF0DAF800282DD1002D00D19DE0079B63491A1B2C19521B611805980EF09FF8BB
S224002FC039E003245E48013C28180AF0D1FB01352D18002CF6D1CFE705980AF08FFB032655
S224002FE000250B90564B2819C0180AF0C1FB0135013E2D18002EF5D1099B0B9A9342CDDD26
S2240030006419C2E7504906980EF0A6F80028CBD0002D18D10499079B8C4663441A004B4B71
S2240030209A4249DC0A00059822A90EF068F8049B1C19474B1D553A0017A90F20FFF77AFA4F
S2240030400A9B0493C9E4099B0B9A934211DA079A049B9B183D4A93422EDC079B05991A1BAB
S224003060049B1819364C00190EF04DF8049A22A9A3E7099B0B9A9342DDD1032300250693FA
S2240030802F4E601980190AF073FB069B0135013B2D180693002BF3D1079B049A5B1B9B18EB
S2240030A02A4A934208DC079B61191A1B049B521B181989198019D7E72648FFF7F1FB049B68
S2240030C00A93B8E7002F20D0BD006059FDF7CAFD002801D100F049FC60590AF00FFB002152
S2240030E00500FDF702FF002802D11B48FFF7D8FBB71E39002000FDF781FE0490002800D17C
S22400310046E229001020FDF7D9F93A0021001020D1E4C046201601008CF0FF1FA016010095
S224003120C9630100CF6301002F620100B47D0100DD630100076401001E640100366401009B
S22400314098F2FF1F4164010048640100FF07000099F2FF1F4C6401005D620100C148BB008B
S224003160E1580DAA2C30FDF728FE0D9B5B100D93002819D0032B06D102F0F4FE0122BA4B0F
S2240031800D9241331A70B71E390017A8FDF736FE0490002800D1FBE10D991120FDF78EF9DD
S2240031A03A0017A9112086E4002FF9D0AF4960680DF0D2FF0028F3D11130DFE3012F00DDF3
S2240031C0E6E10BD16068FDF74DFD0490002800D1DEE160680AF092FAA34B98613A00210065
S2240031E0122068E4A248BB000DAAE1582030FDF7E4FD002813D0B71E39002000FDF7FEFD6A
S2240032000490002800D1C3E10D9B1320D90FC9184910FDF753F93A0017A913204BE4002FB0
S224003220F9D0924960680DF097FF0028F3D11330A4E3012F00DDABE18B4D10D18D496068E4
S2240032400DF08AFF002819D128001822243000210DF05DFF002000F071FF0123049328003E
S2240032600021243018220CF0B7FB8349002800D182498348FDF708FDFFF7AFFB8149606866
S2240032800DF06AFF0028DFD02E0024361822310060680BF080FF182800D079E13000DAE75C
S2240032A004F09AFE02F0F6FFFFF797FB012E2ED075480DAA61684030FDF77FFD0490002808
S2240032C000D165E10D9B0125032B05D06D19042B02D000231D000D93023EAE4200D057E162
S2240032E06A4E00233000370032303C3703703B70002D0AD0A2680A210CF01DFB022D04D140
S224003300E2680A2138000CF016FB0D9B73625F4A1300516A3C3288005B49009209180A6C37
S224003320323321685A48FDF7AFFCFFF756FB01274D4B9C6CB74210D117995648FDF7A4FC8E
S2240033405549002C00D055495548FDF79DFC464B9C64FDF79FF8012373E6BB0017AA9D58FC
S22400336022A9102228000AF041F94C49049028000DF0F2FE002803D1012464420137D9E7F2
S224003380484928000DF0E8FE0028F5D0424928000DF0E2FE002801D10024EFE74249280068
S2240033A00DF0DAFE0028F7D0229B1B78002BE5D1049CE3E72C4C012E1AD0189D3B492800B7
S2240033C00DF0CAFE002805D122000121503213888B430AE0364928000DF0BEFE00281AD199
S2240033E022000121503213880B431380FEF75CFF230052331A88002A01D101321A80230000
S224003400012250331B8813426DD0002001F022FB179928482EE7284928000DF09DFE002810
S224003420DED0264928000DF097FE002848D1022E46D019980AF062F90500642803DD64212D
S2240034400DF0CFFE05006B1E012B03D904222B1F9343CBD1280001F023FB230052331D80A9
S224003460B2E7C046A01601008CF0FF1F2F620100A015010070630100D6620100CC620100D3
S224003480656401006D630100201701000CF1FF1F766401008D640100E4620100E0620100E2
S2240034A0617801008464010088640100A56401009C64010097640100AD7E0100C9630100F7
S2240034C0BE4918980DF048FE002861D1022E5FD019980AF013F903231840230054331880BD
S2240034E001F0EEFA82E70AF0BFFC1799B448FDF7CBFB23006A2152331B88B2485943543476
S224003500FDF7C2FB2188B048B4E6022F43D1AF4960680DF021FE00283AD1AD49A0680DF06B
S2240035201BFE0723002806D0AA49A0680DF014FE00281FD103230D93A74B0D9A0433DA674C
S22400354001230493A44B0433DB6F002B26D00D930D99A248032901D1FFF757FAA04805298F
S22400356001D1FFF752FA9F48072901D1FFF74DFA9D487FE69D49A0680DF0EEFD052300289C
S224003580D9D0A0680AF0BAF80D9001380828D3D99748FFF785F9002FD4D0F9E70523D6E72C
S2240035A0944D012F17D1944960680DF0D5FD002809D1A860FEF778FE90480CF035F9FA2008
S2240035C08000FFF74DFA8E4960680DF0C5FD0028DED1AF60EEE7AB688748002B00D0884863
S2240035E00CF022F9FFF7F9F9012E01D1FFF7F5F9069A16AB9D58189C28000AF0B9F82023C2
S2240036002D18A5420FD8189C0A20210023001A78002A0ED10A7003F08DFD2100794803F009
S224003620C5FDFFF7DAF92278002A00D123700134E7E75C2A04D15D786E2D01D102000133FC
S2240036400A7001330131E2E76A4C022E10D1230050331D8818980AF051F82B00B34300286E
S22400366001D03543ABB2220050321380FEF71CFE012350342288179952081A4062480CF0FD
S224003680D3F803F039FFFFF7A8F9012E12D0189D5E492800199C0DF05FFD002828D1022EA4
S2240036A000D175E720000AF029F84B4B0833D867FEF7FAFD484C564823000833D96F0CF0CD
S2240036C0B3F854480CF0B0F82300002588331E68514BAA00D1580B78002B47D121004F4884
S2240036E08C310CF0A1F821004D48AC31FFF799F94C4928000DF030FD002829D04A49280095
S2240037000DF02AFD002826D1334AB01E8C3219A9FCF726FFCCE7AB0017AFD8594349059305
S2240037200DF01AFD0123002808D0AB004049D8590DF012FD002800D02AE7022301229A40B0
S22400374001351443B542E6DB234B88331C60AFE704000225F6E7374928000DF0FDFC002816
S22400376000D015E71C4AB01EAC32D0E70123AB401E4202D030480CF057F80135A8E72F4B6C
S2240037802800196801F058FC002801DA2C4827E7002801D12B4823E729002B48FFF741F96E
S2240037A02A48022E00D01BE7294819E7022E51D01B20FDF774FAFFF710F9C0469264010035
S2240037C0A0640100A8640100B364010082720100DC640100C56401000CF1FF1FBD6401001D
S2240037E0C8640100D4640100DF640100D06401007E6601008CF0FF1FE36E0100EF640100C0
S224003800EA640100E95C0100FD640100056501001A6501002C650100A015010035650100DE
S224003820416501005C7001000C650100AA5E0100AE5E01001365010061780100E427010028
S2240038404D650100636501007F6501008B650100A0650100189D4B49280009F067FF4A4EA3
S224003860002846D0494928000CF090F8002801D100F080FA310028000CF088F8002864D032
S224003880434928000CF082F8002860D0414928000CF07CF8002866D03F4928000CF076F807
S2240038A0002801D0FFF799F83C480BF0BDFF012184200CF083FB82200CF06AFBFA2080006B
S2240038C00CF0BDF882200CF06EFB83200CF060FBFA2080000CF0B3F883200CF064FBFA20D8
S2240038E080000CF0ACF8002184200CF067FBFFF774F800F03FFA012403F0F8FC01003000B8
S22400390002F014F8264803F051FC002CB8D025480BF08AFF02F014FB061E1ADA04F018FB31
S2240039200A281DD1002CB1D00BF031FA06000BF042FA07000BF044FA3A00030031001A4842
S2240039400BF072FF002CAFD1A6E70400D4E70400DDE7010015480BF067FF232EDED1E1E7AF
S22400396004F072F9D6E70400DEE7114960680DF0F3FB002801D0FFF7C8FB1020FDF7A8F9D9
S224003980FFF72BF8F35D0100BD650100B96501001D710100E1650100E36E0100486601009F
S2240039A0C1650100E865010028660100246601002F62010010B5064803F062FF012105480B
S2240039C00CF071FC00210D200CF001FB10BDC046B53900000090034070B505000C00002841
S2240039E001DD002902DCFFF7E5FF70BD03210D2004F012FD32232A000121064804F0A8FDFA
S224003A00012104480CF048FC2100034803F04CFFEBE7C04600900340B539000010B54A2081
S224003A200CF0B6FA0A200CF00AF84A200CF0BBFA0A200CF004F860200CF0B5FA0A200BF020
S224003A40FEFF60200CF0A4FA9622034B92011A6000225A7110BDC04698FAFF1FF0B50E0014
S224003A600700150087B003AC0C220021200001930DF04DFB02AB981DB1B267700AF059F90F
S224003A80A9B204A80AF055F90A2302AA9B1818000C990AF052F900231A00A15C01325B1864
S224003AA00B2AFAD1E37222000C23354920200AF0D5FC0C9B002B04DD1A00324920200AF050
S224003AC0B0FC042004F026FC2F4B012200906E21186804F03DFC0C21200004F071FC0C993F
S224003AE0019804F06DFC0D9A0C21200004F044FC00270C380500B84209D10A2302AA9B18D3
S224003B0018000AF0EBF82E000700BE4209DB009804F014FC109B1F60002D17D01B4807B09E
S224003B20F0BDFA2202AB92000121D81C04F024FC0138002808D10F9B9E4203DA02ABDB78AD
S224003B400E9A93550136E0E70500E0E70C2322000F4920200AF082FC2B00E27AE15C0133AD
S224003B606D180B2BFAD1EDB2AA42D7D1A07A042803D00828D3D1C42000E0C620C001CEE77A
S224003B805C7401006274010098FAFF1FA26500006874010073B5184D2B79002B28D06B79AC
S224003BA0002B22D10A2409F078FE002802D0013C002CF8D19626002476002200012123005C
S224003BC001960094212009F059FEE12330005B022B600BF034FF2300019600942200042145
S224003BE0302009F04BFE01236B7109F056FE76BD01204042FBE7C04698FAFF1F70B5002529
S224003C00144C257103F030FF052816D15B3029000CF0B2F960200CF0E6F9A84216D00125C7
S224003C2000214A2025710CF0D2F9602029000CF0CEF9FFF7F3FE002070BD4A2003210CF06D
S224003C409BF94A200CF0CFF90028E8D001204042F2E7C04698FAFF1FF0B51C0085B0531E24
S224003C6003900F001600082B00D90526002C00D1144CFFF78FFF051E1ED13100022009F011
S224003C8018FE80211820490009F013FEFA21200089000DF0A6FA0100172009F00AFEFA2326
S224003CA09B00E4182A0001940097039B0121D02009F0E4FD051E01D0FFF7B0FE280005B013
S224003CC0F0BDC046983A0000F0B585B002900020009115000BF023FC0390002D00D10A353E
S224003CE0009B002B3AD0002701F020FF0023052200990298FFF7B0FF041E22D00137BD424B
S224003D001FDD01F01BFFFA20C0000BF098FE01F03DFF02F027F903F039FE019002F010F937
S224003D2006003128E0D032280BD0039B002B03D12A2E09D10C4C04E000200BF0F0FB002801
S224003D40F6D1200005B0F0BD03F020FE019BC01A064B984204D803F077FFDFE7044CF0E731
S224003D60C424E401EDE7C04601650000983A0000826A000010B5FFF741FF0100054801F039
S224003D80D5FD002805D1FFF705FF0100024801F0CDFD10BD6E74010077740100030000228D
S224003DA099684068914200DC100003495A6019609A60DA607047C046CBD80000034A030033
S224003DC00260416000209860D860704713D90000030003485960186000209A60D860704760
S224003DE0CBD80000034B0360002343608360C36018007047DDD80000034B416003600023A5
S224003E008260C3607047C046CBD8000013B56C461300064AE070228000226846A2700A007D
S224003E20052123710BF011FC16BDC04600B6FFFF73B514006A46104B050013800323937026
S224003E40C312D37000230E001A00042168460BF0FCFB00280CD16A46084B90701380D57055
S224003E60147123003200052168460BF0EEFB76BD01204042FBE7C04600B4FFFF00B2FFFF8B
S224003E8007B56A46094B9070138000226B466846DA70032303710B7843714B7883718B7874
S224003EA00821C37113000BF0D0FB0EBD00BAFFFF10B594B06A46254B06210093244B684644
S224003EC0938000231A000BF0C0FB041E03D00120404214B010BD012269460A20FFF796FF27
S224003EE06B461B78162BF2D1502269462000FFF78DFF0422174903A80BF0FBFC0028E6D1B0
S224003F00154C0822210068460BF0F3FC002813D102A809F0B4FE114B9842D8D110A809F067
S224003F20AEFE0028D3D14230684409F0A8FE0C4BC018431E9841CBE72100082209316846F9
S224003F400BF0D7FC0028E3D0C1E7C04600B4000A01160000927401008074010061AE000025
S224003F6000D0FFFFF0B599B004AC07000E00019221000122B420FFF749FF002804D00125B0
S224003F806D42280019B0F0BD0F22237893432370BF2BF4D91B491020FFF772FF051EEED106
S224003FA00100502220000DF0B2F88020502221000001FFF73DFF002F10D1002E1CD1019B95
S224003FC0002BDED002AB3522502120000BF0BEFD039A029901980AF0EDF9D2E7302250218B
S224003FE002AB20000BF0B2FD3A00039902980AF0E8FD0028E1D0C2E7102130000BF073FCA9
S224004000DDE7C0469A740100F0B587B004AC07000E0001222100B820FFF7F8FE002802D01F
S2240040200120404237E00F22237893432370BF2BF6D91A490120FFF723FF051EF0D1012230
S2240040402100FFF7F5FE2078002801D1013822E0002E20D0082202A90120FFF7E9FE082269
S224004060FF2120000DF053F83A000821330020000BF00DFC0822210002A80BF03AFC0028AB
S22400408009D06B46DC1D012221002800FFF7D0FE20780028DAD007B0F0BDC0469774010088
S2240040A0F0B50E4D85B001AC0F000100280016000AF0E2FA07220A4920000DF020F8012320
S2240040C0390003A8E37109F040FE33000B22210028000AF00EFB05B0F0BDC046FC0200203A
S2240040E02806002073B5144C0E000100200015000AF0C2FAC9239B00E158684689B209F049
S22400410018FECA239B00E1586B4689B2981C09F010FE6A4601233100501D137109F015FE1A
S2240041202B006946200008220AF0E3FA2A0031002800FFF7B5FF73BDFC020020014B186040
S2240041407047C046A0FAFF1F10B5114C86B0114920000AF041FC002803D00120404206B088
S22400416010BD0D4B6A4618680A4900280DD10B48FFF7B8FF6A46012120000AF072FB00280B
S224004180EBD10122064BE254E9E7FFF789FFF1E7FC020020F0325F00A0FAFF1FBC74010006
S2240041A033030000CD2270B52F4C90B00021920020000CF0ACFF07212C4803F0D9F90028F2
S2240041C003D00120404210B070BD294E200031000AF023FB051EF4D1264920000AF0FCFB2F
S2240041E020232A000093290008AB019520000AF00CFC08A809F043FD80235B009842E0D1B4
S2240042002220684409F03BFDC0239B019842D8D1072231000AA80CF082FF0028D1D109A874
S224004220C92509F02CFDAD0060512620684409F026FDCA239B00E05062590F4B9A42C0D1C3
S22400424002AA0C490D48FFF74DFF02AA012120000AF007FB0028B4D1094920000AF0BCFB07
S224004260431E9841AEE7C046FC020020B5740100280600202DC465000F2700009D74010030
S224004280F0325F0010B5072202490CF038FF072010BDC04628060020F0B5314B97B0314CFF
S2240042A0029003910492E25C0C260593002A04D12D4920000AF090FB083E2027059B06AD3B
S2240042C0E35C0022019300972B00310020000AF09CFB002804D001246442200017B0F0BDE5
S2240042E0059B2000E35C3A00019300970EAB31000AF08BFB041EEED12B78302BEBD16A786E
S224004300192AE8D1029B002B05D00A2104ABC91802980CF0F4FE06ABDA7E342ADBD11A7F10
S224004320102AD8D1039B002B05D0252104ABC91803980CF0E4FE352304AA9B181B78352BFC
S224004340C9D101339B181A78082AC4D1049B002BC3D0372104ABC91804980AF02BF8BCE7DD
S22400436033030000FC020020F0325F00F0B50E000F2187B01F000F4B15006944092202934E
S2240043800BF0D8FCC3B202AC9A1C22715C22A3716271C31DFF2D0ADCE5540100009708317C
S2240043A02B003200200003F0C9F807B0F0BD0022E254F2E700CB3FFF10B5042001F05EFCF5
S2240043C00921024803F0D4F810BDC046D47401007FB50C00802105004900200009F0B0FA97
S2240043E000282ED128006B4662682168FFF7BEFF051E03D00312DBB2612B17D101AB02AA4E
S224004400114920680BF0BBFB002816D00199200009F0AFFA061E12D163682268009928007D
S2240044200BF03BF90190002804DC084D200009F097FA2E00300004B070BD054DF6E7054DF0
S224004440F4E7044EF6E7C046FF7F0000A2650000826A0000A3650000F0B593B003900D0046
S22400446002921C00189F06290ED0072900D172E0052900D172E0112900D171E06023142903
S22400448000D16EE0162362E0802318001433002F5ED0199A934266DCA04208DD01922300D7
S2240044A00097029A002109F0C7FD040002972F4B0AAE33806B4625211B7B0B22F37002AB9A
S2240044C0C9180EA8B570FFF783FC04AA7C210EA803F0BCFA002382211A000EA80BF0E7FB89
S2240044E0029B220081210EA80BF0E1FB04990EA80BF00CFC0EA809F072FA05AB001B3071EC
S2240045000193199B2200009302993B0030000BF0E1F8199B3A0005990BF0BFF806AB0100CF
S22400452005907C2238000BF068FB06AB8222069807990BF062FB002808D1079B069A1999CD
S22400454038000BF0A4F9079B984201D001235B42180013B0F0BD80235B0096E7C023FBE7B0
S2240045604023002092E71C23F1E7C0460087FFFFF7B51E0001230F0015005B4202000421C2
S2240045800B4809F006FC7A68040000230521094809F0FFFBFF230100200019401840099BBD
S2240045A02A000193089B00933300FFF755FFFEBDE42601000427010000B58BB0202202A9B6
S2240045C07E2009F044FA002301006A4602A80BF0D6FA6B46094A009801990BF00EFB019BE2
S2240045E08020022B08D1009B1A78602A04D158782038431E9841C0010BB000BD2F5F00005B
S22400460073B50D006A460021060003F0EBF9009C182824D1019B0F2B37D1200004210AF0C4
S224004620B5FD04342860022120000AF0AFFD02216860A01C0AF0AAFD0221A860201D0AF070
S224004640A5FD0221E860A01D0AF0A0FD28612000022108300AF09AFD6861002019E017283E
S22400466013D1019B0D2B10D1022120000AF08EFD084B094AC318934202DD2B600234D2E725
S224004680FA23DB00C0182860F8E7002130000BF097FA76BD6C0700009D07000010B50200F0
S2240046A000230C21014809F0F8F910BD3427010070B500220C240A4D230053435B199E6848
S2240046C0864203D105CB05C1002070BD01320C2AF2D1080009F02CF901204042F5E7C0467F
S2240046E03427010070B5040086B0080004910592110022000BF0AEFA01AA302104A80BF04D
S2240047004DFA22000599083204980BF0A3FA02AA302104A80BF042FA0022394904A803F0FC
S22400472061F92500220088351032022104A803F059F904A9280009F0C6F922003021183276
S22400474004A803F04FF903AA302104A80BF026FA210004A82031FFF753FF210004A838310C
S224004760FFF74EFF039904A80BF02AFA2600220058365032302104A803F034F93200214979
S22400478004A803F02FF920007268A16D603000F075FC00221C4904A803F024F92836002291
S2240047A01A4904A803F01EF93200194904A803F019F90022302130000BF0F0F9029904A8C8
S2240047C00BF0FEF904A928000C3509F07CF92A00032104A803F006F928000BF064FA019957
S2240047E004A80BF0EDF90023984205DA9C2120000BF079F801235B42180006B070BDC04640
S224004800A0000040300000208100004082000040A300004073B505001C00160008350A0057
S224004820011DC86F6B46E96F0BF0FAF922000949684603F0D7F8002E04D0206861680BF0F5
S22400484023FA306022000421684603F0CBF8043876BDC0460100004010B50C000B00002247
S2240048600749FFF7D7FF0022302120000BF096F90022802120000BF091F9803810BDC04607
S224004880C427010010B50C000B0000220449FFF7C1FF0022042120000BF080F9043810BD42
S2240048A0D427010010B50C000B0000220449FFF7B1FF0022302120000BF070F9303810BDDA
S2240048C0CC270100F7B504000D0017001E00092901DC0020FEBD09F0D2F9134B98420FD127
S2240048E0A21C023DF343DB171E4001A96B4638000095019604F0DAF90028EAD10198E9E75E
S224004900200009F0BCF9094B984203D122000A3D0A32E7E7B542DCDC2B00220031003800EA
S2240049200AF0B5FFD6E7C0469C7800008B1F0000F0B5040097B00D001600572A55DD0B78FA
S224004940032B52D14B780D2B4FD1582208F0F5FF2F18A81C09F09AF9020020003900083056
S22400496008F0EBFF3F18A81D09F089F9020020003900103008F0E1FFE26863689B186269B3
S2240049809B18B34231DC280021000C30183109F0DDF8280021001430303109F0D7F82800E3
S2240049A02100250048311C3009F0D0F862692169684601F01DFF603508A9684601F080FFB2
S2240049C02A000D490CA80AF0A8FB002804DA2A000A490CA80AF0A1FB2200094968320CA872
S2240049E00AF09BFB002017B0F0BD702120000AF07AFF01204042F6E7385801002C27010005
S224004A00DC27010070B50C00FF26074D631A9A4200DC70BD23780134434033409B005B596C
S224004A20000A5840F2E7C046E82701000F231840014B185C7047C046767501004342034025
S224004A4002485843024BC00E1856704731B57C0756750100002310B5084C2372984206D076
S224004A600AF00AFA002802D10223637210BD00200AF045FA01206072F8E7C046A4FAFF1F84
S224004A8010B5064C637A012B06D000200AF037FA022363720023237210BDC046A4FAFF1F8F
S224004AA00023012806DD0133032803DD0133072800DD0133014AD3727047C046A4FAFF1F06
S224004AC0014B18737047C046A4FAFF1F70B5254C88B0237A0500002B40D00F22224968468C
S224004AE00CF00DFB1723E356042B02D0637B042B05D1237E082B2AD1073B6A469372237EEF
S224004B009B0628D5230022003D331B7819325BB20F21281D0AF0BBFE3B232B70BB3B1A0021
S224004B20AB7002438133C11C04006A70EB70061DE81809F06CF8AE190534307023002A00D9
S224004B400A49022009F08AFC200008B070BD182BD5D1163BD1E76A460F23D9E702246442F7
S224004B60F2E7C046A4FAFF1F0E760100DC75010010B500200AF0C3F900200222014B987289
S224004B805A7210BDA4FAFF1FF0B5AC4C91B0637A0393042B07D818000CF0B0FB03090C1D68
S224004BA02E0009F061F9A54B187A11B0F0BD00232372F8E70021080001F018FD00200AF09F
S224004BC09EF902F0E3FE6423636000232060A37203336372E7E702F0D9FE2368C01A636892
S224004BE09842E0D901200AF08AF902F0CFFE062320606360023BECE702F0C8FE2368C01A27
S224004C0063689842CFD902F0C1FE642303256360237A20606572002B00D0E1E0207B0AF0DA
S224004C207EF908A80AF0A9F9051E00D0D4E026002700012318360D3731003800A3720AF08A
S224004C40C2F9031E00DAC7E0E0753A007C49022009F004FC012332007A49022009F0FEFB56
S224004C60237E9B060BD4FFF783FF002800D0B3E003200AF054F90122704B1A7293E70AF0C3
S224004C806DF9802307005B00984200DD1F006E4BEA56974202DD0135082DF9D1E023802045
S224004CA008AE2D013370757080000AF049F920233200022130000AF054F9051E00DA8BE050
S224004CC0030032006149022009F0C8FB02232000A3723200242119302B000AF0D8FD3D348D
S224004CE02070102472781A21144001D01B21B47802ABC9184023900600D50B780F210A40E0
S224004D00072A66D850498A5602921A090F2A00D1039A202696400F221340934200D10023DF
S224004D2097256D009D40029A330049490220009509F077FB30000AF003F9280002F0D6FDD2
S224004D400722230914401C4002231C4201D1013B23400422144200D00323384EF47A9C4211
S224004D6000DD1C006A223B49A240022009F059FB002C1FD0384B04AD2B80A3002343AB70B6
S224004D802A0003233549022009F068FB10232A00032128000AF0E5F8031E1DDB2A00304986
S224004DA0022009F05BFB2100002001F01FFC2D4802F09CFD330000223E331A70029ABB1E6B
S224004DC0DBB2974202DD1300023BDBB23F3633704EE78022520097E700200AF090F8E2E683
S224004DE0A37A002B14D1502704A80AF0D9F800280ED008AE37806A200AF0A2F8013D102391
S224004E003200022130000AF0ACF8002DECD12572A37A022B02D0FFF7ABFEC4E64E233E34A1
S224004E2022785B42134308A803700200082301210AF097F80028EEDDB5E6C046A4FAFF1F95
S224004E409075010096750100067601009C750100A2750100C5750100D0110000D075010032
S224004E60D675010088130000F0B5CBB007930378029004910692FF2B44D1644E042231000A
S224004E8007790CF04CF9002839D11723604A0799D35606980D320AF0FAFC902504002D02B8
S224004EA0711D042202980CF03AF900281ED1029808AB0530574A39000A900B970AF09DFE2C
S224004EC008AB0422089809990AF097FE099B012B0CD10321089B1B78DA080A400B409342D0
S224004EE000DD130090254A4A2D02D372069BA9B2181908F0FEFE023420004BB0F0BD464D4E
S224004F000024CDE7424B9F7A022F7CD1002303933F4C112023003F33197806AD049B029A07
S224004F20013940190AF0B3FC049B05901B1A04933E342278002B3DDC3A43059B5E1C0AAD92
S224004F40364938002A7009F06CFA112206A95218731E0021380009F091FA80232A005B00BA
S224004F603100280009F0FDFF041E26DC02002C49380009F056FA002CBED10AAB1D786AB2A1
S224004F80002A28DB0126224B013C3E331A78079972401A70112306AA9B180094039A0698C9
S224004FA00AF086FC039B1C18EB06A5D5B1226A400394C4E712252A43BFE72A7838001949EE
S224004FC009F02FFA112206A95218631E0021380009F044FAD1E76A060BD4059A029B944630
S224004FE00122634402930A4B3E3319784A401A708EE7F22D07D13F215A78039C0A405A7091
S2240050003E002A00D4E70124644275E786750100A4FAFF1F6EFF0000816A0000E2750100D9
S224005020ED750100FB75010010B5024B18600368984710BDE4FAFF1F10B5024B1B685B68A2
S224005040984710BDE4FAFF1F10B5024B1B689B68984710BDE4FAFF1F37B5034C069D2468F9
S2240050600095E468A0473EBDE4FAFF1F10B5024C24682469A04710BDE4FAFF1FF0B593B0A8
S22400508007AF04003B00080011000FAA08F02EFF0F9E202E03D0302E25D0102E40D109ADF9
S2240050A02B00280006CF06C3002230210AF076FD0BAA0221280002F095FC0DAA0221280095
S2240050C002F090FC0E9B0B9900930C9A0D9B200008F029FF230010AA183322CA22C30F9B3C
S2240050E0236013B0F0BD0DAD2A00089B079F039310AB03CB03C20022062128000AF04EFDF1
S22400510000232A000221094808F0C7FCC31DDB106360039BA0602660E76023610020E0E7AA
S2240051200023012023604042DBE7C046E82B010003005A681B6810B50800D200202B05D03E
S224005140302B07D00449102B01D010BD034909F068F9FAE70249FAE72A76010031760100F6
S2240051603C760100FF2337B5074C084D23702B6801939847002804D16B68010001939847E4
S224005180207000203EBDC046A802002040580100036870B55C1E022C0ED80E4D2C57A24216
S2240051A015DB022B0BD0032B0DD0012B02D108300BF0F3FB200070BD01246442EFE70830A1
S2240051C00BF07BFCF6E708300BF0B3FDF2E701246442EFE74E76010007B5064B1B787F2B0F
S2240051E004D8054B9B68019398470EBD00F094F9FBE7C046A80200204058010073B50C4AF7
S22400520006000C000AF097FB0A4D2B787F2B08D8094B211A5B6830180193984700202856BC
S22400522076BD064A210030000AF09DFBF6E7C04651760100A802002040580100607601001E
S224005240020000200A4B1B785BB2834207DB052B06DCC021D30F490091425841C0B27047D8
S2240052600120062BFBD1803A1000421E9041F5E7A8020020F0B50D001E000023E1B01400D2
S22400528001000DAA280009930A930B930C9308F033FF00280AD00124644209A808F060FBB8
S2240052A00BA808F05DFB200061B0F0BD09AA3100280008F081FF0028EDD1256864680D999F
S2240052C028A808F0FBFF2900220028A808F0DCFF302210A928A8FFF75BFF0F9B0A9D039307
S2240052E0C31801330700AB42D5DA099C6319013B1B78BC2BCFD12D1A013D631905937F2345
S22400530026789E43C7D129000BA808F019FB0E9B039606930B9B07930C9B0493049BB3429C
S22400532036DC2A000B9920000AF063FB7F2223780021134023700F9B2000ED1A6E1E32003E
S22400534003930AF049FB0028A5D1A35D012BA2D10D9928A808F0B2FF08221F4928A808F0BE
S22400536093FF65193A0010A928A808F08DFF0F9A290028A808F088FF302210A928A8FFF7DF
S22400538007FF3A00059910A80BF0C9FE040084E703991CA808F0B3FC069928A808F08EFF46
S2240053A03A00059928A808F06FFF04221CA928A808F06AFF30221CA928A8FFF7E9FE1CAB33
S2240053C000903200049907980AF072FA039B361801330393A2E7C04645760100F7B50400B3
S2240053E048680D0016001F00FFF72AFF00280AD0114B20009C46644624693B00320029006A
S2240054000194A047FEBD200008F07EFB102804D0202809D03C204042F4E73B003200290043
S224005420200008F001FFEDE73B00320029002000FFF720FFE6E7C04640580100F0B51D0082
S224005440104BBDB01B780E0014007F2B0AD8002A08DD0D4F429BFC6800932B000394A04756
S2240054603DB0F0BD010004A808F028FF2200310004A808F009FF429A290004A8FFF788FE95
S224005480EEE7C046A802002040580100F0B50D0087B011002800019209F0E5FC1B481C4972
S2240054A043589C46802362461B05134380224350184B5A620290039119681142FCD000226D
S2240054C011009C209860002018621960802618683042FBD0186905900020AF1805AE3C7828
S2240054E0365C013274403C70019C944200DC002201300428F1D101311F29E2D161460020FE
S224005500029B039A995007B0F0BDC046007004403C10000000B0034073B50B4D06002B0055
S224005520FC33DA6B0C00002A06D1202307490093030028000BF0DAF8E243D2173100280060
S22400554022400BF04CF976BDE8FAFF1F8D540000F0B505000024836899B00593C368079133
S22400556001930369039343690693836904930F27A60027400F2C00DDEBE0079B981908F057
S22400558085FB08AB98511B20059A854BC241BF00D21808ABFB580699D218039B01344B40A7
S2240055A001990B4006994B40D218049B0199D2180223D94102910599019106990491142C54
S2240055C000D0C0E00F219C46079027002600E31E083F0B400F40BF0008A89B001B58385871
S2240055E00E40B600584008ABF35808AF584023000E3B0B409B00DB59013458401F23D8410F
S2240056001300F051079E029FF341664E9B19059E7E40039F7E409B191B18069806971B1839
S2240056200493634605980592D8410190282C00D0A7E002230F279C4623002100E61E083BD4
S2240056403E403B4008A8B6009B001B583658394089005E400B585E40059323000E3B3B402A
S2240056609B001B5801345E401F23DE410E5011001B20019B1943029B1940019B1340194300
S224005680049BC34148481B18CB1803999B195B186146CA41029916000391049A3C2C00D02C
S2240056A075E00F27220021003A4094460839E21E3A40394008A89200890012580958514068
S2240056C062469200105841400E2040428446A44460463840800084460391614608A809588C
S2240056E003980134484001001F20C14108A811501B201A00C2412D48121804980392019A37
S2240057007040504084460220039A62445118029A8918049A0493C24101980290502C3BD184
S224005720A8684118A960E968CB18EB602B699A186B692A619E19019AAB696E619818A861E0
S224005740002019B0F0BD039B05920693029B03930DE708ABF61833000F20203B383E31682C
S2240057601B68BA004B4008A951584B400291E11E0140890008A809584B401F21CB411350D0
S22400578001E7029B049A0393019B02931DE701990493029101964FE701960B00160081E765
S2240057A09979825AA1EBD96EDCBC1B8FD6C162CA0123002805D0044B1B680340581E8341AE
S2240057C0DBB218007047C04628FCFF1F094B10B51B6804001B060BD5002809D003780A2BCE
S2240057E006D102F0D3F8010003480AF01DF80134200010BD28FCFF1F8A760100F8B516008D
S2240058000F0009F0D6FF842335005B009E4200DD1D003C00E31B9D4205DCAE4202DD05487F
S2240058200AF002F8F8BD2178034809F0FDFF0134F0E7C0467E7601008F7E010070B50D009A
S224005840160009F0B6FF202009F0DAFF2C00631B9E4200DC70BD2178024809F0E5FF0134E5
S224005860F5E7C046907E0100F0B5002485B003910192029309F09DFF019F029B9C4201DBEC
S22400588005B0F0BD039B019A1948991AC91909F0CBFF002603231E4202D1202009F0B0FF48
S2240058A0029A331925009A421BDDB95D114809F0BBFF0136102EEDD10F4809F0B5FF103465
S2240058C0029B9D4207DA019B585D0300203B5E2B0BD809F064FF0135A542F1D12C0010379D
S2240058E0CBE7054809F0A0FFE3E72E20F1E7C04683760100907E0100415E0100024B1A689E
S224005900186010007047C04628FCFF1F70B51D00049B040008F0A2FD049BAB4203DA0249CB
S224005920200008F07EFD70BD7E76010010B50C000B000A000100024809F076FF200010BD21
S22400594071760100F0B506008BB015001C00002904DA011E02D009F0C0F801008C4209D1F1
S224005960320023002100280009F091FF002630000BB0F0BD30006A4609F0C4F8061E3FD174
S224005980102C1FD16B462A00581C042109F0A0F86B46AA1C981D042109F09AF80B202A1D83
S2240059A06844062109F094F86B46197D987C09F02EFC2A00E871162008322100684409F053
S2240059C087F8D4E7192C13D1070005222100280008F035F96B460F22DB5D210013400C4ADE
S2240059E02800D25C013708F01EF9282FEDD1BEE7282C05D12200694628000BF080FBB6E715
S224005A0001262100280009F06EFF7642AFE7C046B076010000B58DB0010002A809F0D6F8CC
S224005A20029B002B0AD1039B01200193002B03D10498431E9841C0B20DB000BD054A01203A
S224005A409342F9D1039A01929A42F5D10498024BC018EEE70F270000C1BDF0FF10B58EB094
S224005A600C00010004A809F0B1F8089B059A0193079B0499039300930A48069B09F0D4FECA
S224005A80002C0CD02D2009F0BBFE052109A809F099FE0D9B0C9A0B99034809F0C5FE0EB0DC
S224005AA010BDC04692760100A776010010B5040009F053F900F0D0FA002C00D1044C2100B1
S224005AC0044801F073FB012001F05CFB10BDC0462E7701003877010010B504000120FA227E
S224005AE01E21404200F010FB002C00D1044C2100044801F05BFB012001F044FB10BDC046C0
S224005B002E7701003877010010B5040000F0A4FA303C1E2000F0C8FA092C02D8024801F02D
S224005B2045FB09F0A1F810BDF35D010010B5024801F03CFB10BDC046C0760100C42310B583
S224005B40DB01984213D003DC00280AD0094809E0C623DB01984208D0074B9842F6D10748D3
S224005B6000E0074801F022FB10BD0648FAE70648F8E7C04623770100826A0000F2760100C4
S224005B80E7760100087701001677010010B5024801F00CFB10BDC046D4760100C22310B5C5
S224005BA0094C9B00628800209A420BD0FEF704FC03005A1E9341054A5B421340C222920036
S224005BC09B18638010BDC046F8020020F8FCFFFFF0B5254B85B05B880500002483421ED042
S224005BE00A22224913006343C85A85421AD102335918072268460BF082FA6B46581D08F06A
S224005C003EF807000721684601F0B2FC00260400B04202D1BD4217D1AEB2134B5E8020003B
S224005C2005B0F0BD0134102CDCD1114B11499D4200DD1149052268460BF061FA6A462B12FB
S224005C40537195712F00DDE7A9239B020293022302A803712B124371857109F0FCFC002841
S224005C60DAD00400D9E7C046F802002008020020FF0F00003F77010049770100054B022867
S224005C8002D11870002070470322042800D000221A70F7E7F80200200F4B10B51B78040052
S224005CA05BB2022B05D0032B0ED008230520237110BD80208000FFF78BFF0023202223707B
S224005CC06270A370E370F0E7FFF768FF05222100802007F0D5FEE8E7F8020020022210B5CF
S224005CE0034B072103481A7001F042FC10BDC046F80200205A77010013B50C006946FEF7EE
S224005D00D1FD23000C4A0098019909F089FF002805D02300094A0098019909F081FF002244
S224005D20A021200009F03AFF00220421200009F035FF002016BDC046385801002C270100D9
S224005D40F0B50400A9B0092903DC0120404229B0F0BD264E08AD03AF009780232A000C2196
S224005D60300001F0EBFB002836D1039B6F220793039904AB2800069509F03FFF04ABA52264
S224005D800599049809F039FF04AB194A0498059909F033FF059A049B2A2A07D0290015482D
S224005DA009F061FC0028D0D123236B441A78002022705A7862709A78A270DA78E2701A7C84
S224005DC022715A7C62711A7BA2715A7BE2719A7B2272DB7B6372BAE7009780232A000421B4
S224005DE0300001F0ABFB0028BFD0AEE74E7701006E9F00004477010070B506000C001500B0
S224005E00102A04D10BF07BF90023180070BD09220B4920000BF083F9002801D10934093D04
S224005E20102332002900200000F00AFF00231028EBD01021300009F056FD01235B42E4E767
S224005E40617701000122F02170B5100009040AF0EDF88C2101200AF00CF9F021050009041F
S224005E6001200AF0F0F8F0210022090401200AF0DDF8F021012009040AF0EBF801228C21FE
S224005E8010000AF0D3F8F021012009040AF0F1F8002204008C2101200AF0C8F870236A0853
S224005EA0AD002A4324021A40240F22430C4C2378934210D06378D2B22270002B0CD00023E8
S224005EC00C21084807F055FF002804D0C2B20421201D07F081FF70BD0C210348F2E7C04628
S224005EE030FCFF1F837701006B770100014B18787047C04630FCFF1F10B5F0242404210070
S224005F0001200AF07DF88C2101200AF079F8210001200AF09EF88C2101200AF09AF8012165
S224005F204C200AF054F83221014801F0BDFC10BD455E0000014B58707047C04630FCFF1FD9
S224005F40042110B50248401807F05BFF10BDC04630FCFF1F024B98685B68C01A7047C0469B
S224005F6030FCFF1F014B5A689A60704730FCFF1F70B5224C2368002B07D06568002D22DDB0
S224005F80A368AB4231DA0A3D65602369002B07D06569002D1EDDA369AB422ADA0A3D65615F
S224005FA0236A002B07D0656A002D05DDA36AAB4217DA0A3D656270BD013B50202362E56AC9
S224005FC009F0F1FFF5E7013B52202360E56809F0EAFFD8E7013B51202361E56909F0E3FF7E
S224005FE0DCE7502009F0D4FFE3E7522009F0D0FFC9E7512009F0CCFFD0E7C04640FCFF1F9D
S22400600010B50121522009F0E2FF0021512009F0DEFF0021502009F0DAFF0121612009F0E1
S224006020D6FF0A21014801F03FFC10BD715F0000002210B5024B52201A6009F0A9FF10BDBB
S22400604040FCFF1F002210B5024B52201A6009F0AAFF10BD40FCFF1F002210B5024B512053
S2240060601A6109F095FF10BD40FCFF1F002210B5024B51201A6109F096FF10BD40FCFF1F17
S224006080002210B5024B50201A6209F081FF10BD40FCFF1F002210B5024B50201A6209F022
S2240060A082FF10BD40FCFF1F10B5002802D1FFF7C9FF10BD0122034B1A609860D860586015
S2240060C0F7E7C04640FCFF1F10B5002802D1FFF7CDFF10BD0122034B1A619861D861586157
S2240060E0F7E7C04640FCFF1F10B5002802D1FFF7D1FF10BD0122034B1A629862D86258622F
S224006100F7E7C04640FCFF1F024B18619961DA615961704740FCFF1F10B5014C0FC410BDC4
S22400612040FCFF1F10B5034C2061A261E361616110BDC04640FCFF1F10B5034C2062A2629B
S224006140E362616210BDC04640FCFF1F0C4A10B58CB2038862404240048042808B420CD905
S224006160084A1B1B41189BB20B8053404B404B80054B9A68914200D29960043010BDC04681
S224006180764B00006417000070FCFF1F10B501480AF08EF89B770100114BF7B55E680300C2
S2240061A00100104A104F5340019308880B189E4214D93C001A885D8853409BB25C40A54253
S2240061C00CD0084C63409D4201D0FFF7DFFF8218019B92B20A805A404A80E6E7FEBDC0466D
S2240061E070FCFF1F64170000764B0000114B04381A6870B5824202D85C68844201D8FFF79E
S224006200C5FF0D4903880A005A404240458892B29542F4D1C3189C420AD91A885C8853404C
S2240062209BB259408C4203D0044A53409C42E6D170BDC04670FCFF1F764B00006417000063
S22400624070B50F480F4CCA21241A22000AF05FFF030007210B338B43043B181A221A1000CB
S224006260094D884381B25D401980694059800749074C0A409A1823606260A36070BDC046F3
S2240062803C0600200060002064170000F8FF000070FCFF1FF0B5254D85B02A69E96824487F
S2240062A009F0C2FA2A686B6822489B1A0093AB686A68296809F0B8FA2C68002C0AD000262C
S2240062C0012703966B68A34206D8039B002B1CD1002E1AD005B0F0BDAB68A34200D13E002B
S2240062E0230022881449534060889BB2594088420DD12100114809F097FA102221000020EF
S224006300FFF77CFA2388002B0DD1FFF73FFF0C494B402100984201D10A48ECE70A4809F007
S22400632083FA0397E9E7E418CCE7C04670FCFF1FAB770100C777010064170000E8770100F5
S224006340764B0000F777010006780100F8B51E4E05003368002B01D1FFF772FF002D01DC62
S2240063600020F8BD07230B35B4689D437368A342F6D92200154B21881F004A40608892B24E
S2240063805740B8421AD1B26810884340534052889BB29A4200D0B460A94207D3F368290084
S2240063A001332000F360FFF7D1FEDAE72000FFF7F3FEA842F2D22388E418D7E7044B5A40A8
S2240063C09042F8D0FFF7E2FE70FCFF1F64170000764B000010B500280ED0084C23690133A3
S2240063E02361FFF703FF064B0288534043404380A368984200D2A06010BDC04670FCFF1F54
S22400640064170000F0B5050085B00E1E05D1FFF7E1FF3400200005B0F0BD002804D108008A
S224006420FFF794FF0400F5E7FFF7E0FE0024038801900293A642EDDD330007220B33934323
S2240064400393039A029B93422FD21A4F029A7B6884189C4210D33000FFF778FF041ED9D0E4
S224006460280008F0B2FC2900020020000AF047FE2800FFF7AFFFCDE722880F4B5340634005
S22400648062889BB29A42E6D12000FFF785FE029B1818039B8342DED8019B18800023638074
S2240064A0BB689C4201D13B68BB6003990198FFF74DFEB7E770FCFF1F6417000010B5002246
S2240064C02321034802F034F8322009F06CFD10BD0070074013B5400001AC20706170FFF7C6
S2240064E0EDFF02222100034809F03CFE322009F04FFD13BD0070074013B543000120184343
S224006500FF2301AC63702070FFF7D8FF21000222044809F027FE0400322009F039FD200023
S22400652016BDC04600700740F8B517000E000400902102201D00FFF7CDFF7F210620FFF782
S224006540C9FF7F210720FFF7C5FFFFF7B7FF0A21244809F0FBFD3A003100224809F002FEEB
S224006560322009F015FD21000020FFF7B3FF01F00DFA04000F2009F036FD002823D1073026
S224006580FFF7BAFF040000210800FFF7A3FFA30724D40420FFF7B0FF041E12D0069B984298
S2240065A000DD1C00FFF78AFF0B210E4809F0CEFD0C4823002A000B2109F0E4FD322009F026
S2240065C0E7FC2000F8BD01F0E1F9074B001B984202D801F039FBCDE70224D4E7032464428B
S2240065E0EFE7C04600700740881300007FB505000E00002804D001246442200004B070BD59
S22400660003ACCBB22370637021000300009002220D20FFF789FF0C4B7600F35A2100637052
S2240066201A120A4B22706380042200952B000C20FFF77AFF041EE0D1012008F060FC032073
S22400664008F06DFCD9E7C046545801002812000070B50025FFF786FC054CFF21A268206862
S22400666009F033F9256201F091F9E561606270BD84FCFF1F70B5274C257E0AF0D7FB85424D
S22400668003D001235B42E36123E0236AE568002B01D103335D43002D01DC0223F2E701F074
S2240066A075F9636AC01AA842F7D8FFF749FC051E1EDBC6B2216A3000FFF726FA232D0ED138
S2240066C0236A002BDDD06268934201DA0323D9E7E561114801F0D4F808F0CDFA08E02A2D96
S2240066E00DD163691B0704D5E56101F04FF9606270BDFFF7ADFF2069FFF7EEF9F5E7236A11
S224006700A268934201DB0423BCE72268D65401332362EAE784FCFF1F7566000010B5034828
S22400672001F0AEF80022024B1A6010BD7566000084FCFF1FF7B51D0007000E000192FFF727
S224006740EDFF0D4B9D4200D91D000C4C019B2760A360089B66602361099BE56063610AF009
S22400676065FB2076FFF774FF0898FFF79FF9044809F060F9F7BDC0463075000084FCFF1FEC
S2240067807566000073B5051E00D101AD0023164C2B602368002B24D001F0F8F80600E36962
S2240067A0002B07D101F050FA2368002B12D101235B42E361FFF7B2FF08F05DFAE369002B8B
